:100000000C9482020C94CA1F0C94A31F0C94AA0295
:100010000C94AA020C94AA020C94AA020C949921A2
:100020000C94AA020C94AA020C94AA020C94F11F3C
:100030000C94AA020C94AA020C9438220C94AA02E2
:100040000C9451210C94AA020C94AA020C94AA02BA
:100050000C94AA020C94AA020C94AA020C94AA0270
:100060000C945F200C94AA020E3162003100310022
:10007000310068316200310031003100685D0F31BC
:10008000690031005D447361626C65004379636CA3
:10009000652000546574726973004469676974204F
:1000A0000044726F7073200047686F7374200043C0
:1000B0005368696674005261696E626F0020466120
:1000C0006465200020506F6E67200020313938327F
:1000D00020002046697265200050756C7365200011
:1000E00053746174696300436F756E7444004175A5
:1000F00064696F2000204C454473200020446174E3
:100100006520002054696D6520004473706C61792E
:1001100000436F6E666967004272696768740041E8
:100120006C61726D200050686F746F6E002020202B
:100130002020200000246051DA35CA204122F0320C
:100140000C100431EB22B9BA72DADBA2FBFA888A0E
:1001500039185AB5BBF35BC93BD9D1FA73222B735B
:1001600049E3E3EBF1F2C1DA596B6B6B737AB9C90E
:1001700052AAE00840BB5B193BF9D1FA53022B733A
:100180004913131BF1F211DA590B0B0B737AB901F6
:10019000410280FF7E007E0068006800456E61625B
:1001A0006C6500447361626C65002020504D202016
:1001B000002020414D2020004379636C65200041E0
:1001C0007564696F200073657420253032750052A4
:1001D00065736574200043616E63656C00526573DE
:1001E00065742000526576202020004133204F4E58
:1001F00020004133204F4646004132204F4E200020
:100200004132204F4646004131204F4E20004131BF
:10021000204F4646002053657420200020253032B0
:10022000752530327520002D446F6E652D005361A9
:1002300074726479004672696461790054687273FB
:1002400064790057646E73647900547573646179DE
:10025000004D6F6E6461790053756E6461790020A2
:10026000736574203800207365742037002073652F
:100270007420360020736574203500207365742067
:1002800034002073657420330020736574203200BD
:1002900020736574203100204175746F2000427214
:1002A0006967687400204761696E2000202025304E
:1002B00032752020004F666673657400202025305B
:1002C00032752020004E6967687420003132206842
:1002D0007220003234206872200020486F7572202E
:1002E00000442D4D2D5920004D2D442D59200059ED
:1002F0002D4D2D442000204461746520004E6F690F
:1003000073652000506872617365002044617465F4
:10031000200053706972616C00204E6F6E65200082
:1003200045666665637400506872617365002025D8
:10033000303275253032752000502D4F6666200012
:1003400020502D4F6E20002054696D65200025300F
:100350003275253032752530327500204461746560
:100360002000E000D900D200CB00C400BD00B600E0
:10037000AF00A800A1009A0093008C00850045669C
:100380006665637400436F6C6F7220004875652565
:1003900030337500205365742020002530366C758D
:1003A000001F01180111010A010301FC00F500EE14
:1003B00000E7007E607B5F7D277E607B5F7D277E20
:1003C000607B5F7D2700726561646E6700030201D8
:1003D00000130001002302000003050400030304CE
:1003E000000305030000000000230026002900028E
:1003F00000030004000600080009000C00100012B1
:1004000000180024003000010001004100450049AF
:10041000004E00520057005C00620068006E0075DC
:10042000007B0083008B0093009C00A500AF00B907
:1004300000C400D000DC00E900F700060115012629
:100440000137014A015D01720188019F01B801D2A3
:1004500001EE010B022A024B026E029302BA02E481
:100460000210033F037003A403DC03160455049732
:1004700004DD0427057505C80520067D06E006494C
:1004800007B8072D08A9082D09B9094D0AEA0A90ED
:100490000B400CFA0CC00D910E6F0F5A1053115BEC
:1004A0001272139A14D41520178018F519801B2383
:1004B0001DDE1EDC05F5050E0627064006590672F0
:1004C000068B0600000000240027002A0000000020
:1004D00000250028002B0004040404040404040282
:1004E00002020202020303030303030102040810D1
:1004F000204080010204081020010204081020009E
:100500008222E43211241FBECFEFD8E0DEBFCDBF80
:1005100012E0A0E0B1E0E6E0F0E702C005900D9245
:10052000AC3DB107D9F724E0ACEDB2E001C01D92BB
:10053000A636B207E1F712E0C1E8D2E004C0219785
:10054000FE010E948336C038D107C9F70E94662495
:100550000C94E1370C9400008093790381E0809340
:100560007A0308959091C203891778F4693068F48A
:1005700090E0880F991F2091C3033091C403820F2C
:10058000931FFC01618380E0089581E00895893024
:1005900068F42091C203E091C303F091C40390E09A
:1005A000291731F081839F5F3296FACF81E0089559
:1005B00080E00895FC0140813181228190E080E05B
:1005C000E091E403F091E503E80FF91F4083E09127
:1005D000E403F091E503E80FF91F3183E091E403B0
:1005E000F091E503E80FF91F22830396823191050C
:1005F00039F708959091C203891780F490E0880F2D
:10060000991FE091C303F091C403E80FF91F908193
:1006100090786F77962B908380E0089581E008951D
:100620000F931F93CF938C0181E00115110579F091
:10063000C0E08091C203C81748F4F801EC0FF11D27
:1006400060818C2F0E94FA02CF5FF3CF80E0CF91C0
:100650001F910F9108959091C203891790F490E033
:10066000880F991FE091C303F091C403E80FF91FAD
:100670009081662311F0906801C09F77908380E09D
:10068000089581E00895CF93C0E08091C203C81718
:1006900030F460E08C2F0E942B03CF5FF6CF81E017
:1006A000CF9108958F929F92AF92BF92EF92FF9257
:1006B0001F93CF93DF937C01CB0110E02AE0822EC1
:1006C000912CA12CB12CC091C2031C1780F4C11B2A
:1006D000DD0BCE0DDF1D2197BA01A50194010E940B
:1006E0004236CA01605D6883A9011F5FECCFDF91CC
:1006F000CF911F91FF90EF90BF90AF909F908F9000
:100700000895BC01892BC1F090E08091C203981735
:10071000A8F4292F30E0FB01E20FF31F220F331F53
:100720004091C3035091C403240F351FD9012C916C
:100730002F7720839F5FE9CF81E0089580E00895BF
:10074000E091C703F091C803309709F0099480E065
:100750000895E091C503F091C603309709F009941C
:1007600080E00895E091C903F091CA03309709F041
:10077000099480E008959091C203891760F490E095
:10078000880F991F2091C3033091C403820F931FD8
:10079000FC018181089580E00895FC016630F0F449
:1007A00083E0689FB0011124A091E403B091E503B8
:1007B000A60FB71F20812C93A091E403B091E5030D
:1007C000A60FB71F318111963C934091E4035091DD
:1007D000E503640F751F5281FB0152830895FB01ED
:1007E000DC0140FF05C002C001900D9201900D9206
:1007F0004250D0F75040C0F708950895FC01808121
:10080000882331F0108220917B03215020937B03B9
:1008100035E63583A181B2819C914381409549237E
:100820004C930895EFE6F0E080818D7F808389EE20
:1008300093E00E94FE038BEF93E00E94FE038DE0A5
:1008400094E00C94FE030F931F93CF93DF93EC017E
:1008500068897989EE85FF858E819F8109958D351F
:1008600008F03BC0E82FF0E0EE0FFF1FE75FFB4F03
:1008700005911491688979898E819F81EE85FF8524
:10088000019609952E813F818F3520F08D832E5F53
:100890003F4F02C02F5F3F4F3F832E83ED81EF55C7
:1008A000FF0BEE0FFF1FE151FC4F259134914C815E
:1008B000429FC001439F900D11249987888780E053
:1008C0009AEFB8010E941A367B876A877D876C870A
:1008D000DF91CF911F910F9108958E3579F468893A
:1008E00079898E819F81EE85FF85019609958C839C
:1008F0008E819F8102969F838E83AACFCE01DF9146
:10090000CF911F910F910C94FE03CF92DF92EF9243
:10091000FF92CF93DF936B01EB010E9412041092C0
:1009200080001092810010928500109284008091C6
:10093000810088608093810020917B03209709F0DB
:100940002F5F94E0C90ED11CC114D10409F02F5FB0
:1009500020937B034AEF50E0509389004093880036
:1009600030918100316030938100209751F1E8800F
:10097000F980F092F803E092F7036A817B8170932B
:10098000FA036093F90389EE93E00E94FE0351E0BD
:100990005093E9036091F9037091FA03E091F70332
:1009A000F091F80390E080E009958093ED03A1E0D9
:1009B000B0E0B093F003A093EF0389EE93E00E94C0
:1009C0002304CD2859F1CC80DD80D0920A04C09256
:1009D00009040E80DF81C02DD0930C04C0930B045A
:1009E0008BEF93E00E94FE0371E07093FB03609134
:1009F0000B0470910C04E0910904F0910A0490E05A
:100A000080E009958093FF0381E090E090930204D9
:100A1000809301048BEF93E00E94230490916F0078
:100A2000926090936F00DF91CF91FF90EF90DF90F5
:100A3000CF900895DC0140FF03C001C06D936D931A
:100A40004250E0F75040D0F7089542E150E060E0B6
:100A50008FEC93E00E941A0543E050E060E081EEE5
:100A600093E00E941A051092CE0308952F923F92B0
:100A70004F925F926F927F928F929F92AF92BF92AE
:100A8000CF92DF92EF92FF920F931F93CF93DF935A
:100A90002C01FB01D80126173707D0F4EA01198190
:100AA0007A816C9111969C91119712968C91129764
:100AB00008810C9311961C93119712967C931297B0
:100AC000688399838A832E2E3F2EF901222D332DA0
:100AD000EA01E880F12C8C9190E08E199F0996959F
:100AE000982F8827979587952980312C1196CC903F
:100AF0001197D12CC218D308D694DC2CCC24D794CF
:100B0000C7946A80712C12960C9110E0061917098F
:100B10001695102F0027179507955901AE1ABF0A91
:100B200019F4AA24A394B12CB5010E942E364B01CE
:100B3000C601B5010E942E366B01C801B5010E94A5
:100B40002E36880C991CCC0CDD1C660F771FFE2CF2
:100B5000EE24D22DCC27762C6624DF01AA0FBB1FF2
:100B6000AE0FBF1FA40DB51D2E173F0780F0FC92DE
:100B70001196DC93119712967C921297E80CF91C4F
:100B8000CC0DDD1D660E771E31961396EDCFDF91ED
:100B9000CF911F910F91FF90EF90DF90CF90BF907A
:100BA000AF909F908F907F906F905F904F903F900D
:100BB0002F900895DC01FB0112969C9112972C91C5
:100BC0003FEB239F020E20E0211D112411968C91F2
:100BD0008095989F612D722F770F770F961B799FC5
:100BE000412D7095799F512D962F940F362F350FEB
:100BF00027FF04C090836183328309C026FF04C0AD
:100C000060833183928303C0308391836283112494
:100C10000895CF93DF9300D000D000D0CDB7DEB7DA
:100C2000BE016C5F7F4F0E94DA058C8189832D8124
:100C30002A833E813B83CE0101960E94DA022696EA
:100C40000FB6F894DEBF0FBECDBFDF91CF910895F0
:100C50001F93CF93DF9300D000D000D0CDB7DEB785
:100C6000162FBE016C5F7F4F0E94DA058C8189834D
:100C70002D812A833E813B83612FCE0101960E9404
:100C8000CD0326960FB6F894DEBF0FBECDBFDF9121
:100C9000CF911F910895CF93DF93A091A603B091B8
:100CA000A70311968C91119790E0FC01E952FB4F3C
:100CB000E491F0E0EE0FFF1FEB51FC4FC591D49192
:100CC0002881FC01E551FB4FE491E22330E009F07B
:100CD00032E08C9190E0FC01E952FB4FE491F0E0AE
:100CE000EE0FFF1FEB51FC4FC591D4914881FC01E1
:100CF000E551FB4F54914523E1E009F4E0E0E32B9B
:100D000016968C9116978F7024E0829FC001112453
:100D1000E80FF92FF11DE353FC4FE4911696EC9385
:100D20001697E073D9F014968C911497813019F4CA
:100D3000E03221F404C081E0E03209F480E017964B
:100D40008C93179731E015963C9315971896ED9173
:100D5000FC91309719F0DF91CF910994DF91CF91F9
:100D6000089580E00895CF93DF93EC01E881F98145
:100D70000488F589E02D099591E087FF02C090E095
:100D800080E08B879C8781E08D87DF91CF910895EC
:100D900081E50895FC019091BC009F70906D909347
:100DA000BC0024E68091BC0084FF0CC02150D1F728
:100DB0003091BC003B7F3093BC004091BC0044604C
:100DC0004093BC0010820895FC018389B0E0A0E04C
:100DD000882341F02189A489B5899BE0299FA00D32
:100DE000B11D11243C91311104C061E0608350E0D9
:100DF00003C042E0408351E012968D919C9113977D
:100E00009787868711967C911197770F752B75833D
:100E100014962D913D914D915C91179722873387C0
:100E20004487558716821782108611861182A091F9
:100E3000BC00AF70A06AA093BC00089540E6849FF8
:100E40009001112493E0359527959A95E1F7EBEC05
:100E5000F3E03FEF839FC001112433E09595879520
:100E60003A95E1F7838F248F258F0895E8EBF3E01F
:100E70008581158208953FB7F89480915A03909127
:100E80005B03A0915C03B0915D0326B5A89B05C0F0
:100E90002F3F19F00196A11DB11D3FBFBA2FA92FF9
:100EA000982F8827BC01CD01620F711D811D911DF6
:100EB00042E0660F771F881F991F4A95D1F7089562
:100EC0008F929F92AF92BF92CF92DF92EF92FF925A
:100ED0004B015C010E943B076B017C010E943B07B8
:100EE0006C197D098E099F09683E73408105910543
:100EF000A8F321E0821A9108A108B10888EEC80E73
:100F000083E0D81EE11CF11C81149104A104B104FA
:100F100029F7FF90EF90DF90CF90BF90AF909F9018
:100F20008F900895FC011082118281E0828328E075
:100F300023831582148217821682118610861386E7
:100F400012861586148617861686118A108A0895C9
:100F5000FC01108211821282148213821682158281
:100F60000895811104C081E08093E80108950C94F4
:100F700000000895811104C081E08093D601089596
:100F80000C9400000895FB01E80FF91F85919491DE
:100F90000895CF92DF92EF92FF920F931F93CF931A
:100FA000DF9300D000D0CDB7DEB7811103C025E0BC
:100FB0002C8302C09CE09C8300915803402F50E09A
:100FC00068E070E0882311F063E070E06417750753
:100FD00024F00F5F0093580329C010925803C0906B
:100FE000C401109157031C0D10935703882319F067
:100FF00080913F0403C080915603885F809356031D
:10100000112311F0193019F4C194C092C4011A309F
:1010100018F032E030935703E0915703E250E63086
:1010200028F4F0E0E05BFC4F4FEF4083C0905603A4
:1010300080E5E82E83E0F82E00E0DD24DA94F70165
:1010400011917F01C982DA821B83602FCE01019644
:101050000E9428062C81121B08F410E0F70131973A
:1010600010830F5F063059F70F900F900F900F907D
:10107000DF91CF911F910F91FF90EF90DF90CF9074
:1010800008954091C2015091C30125E038E0429F8C
:10109000C001439F900D529F900D1124875E994C83
:1010A0009093C3018093C201890F0895CF93C82FF5
:1010B0000E9441088C9FC0011124892FCF9108956F
:1010C0006F927F928F929F92AF92BF92CF92DF9258
:1010D000EF92FF920F931F93CF93DF93CDB7DEB7BD
:1010E000C254D1090FB6F894DEBF0FBECDBF9091A8
:1010F0006104913089F400914F0321E0200F209387
:101100004F030C3348F0E0917203F09173031081A8
:101110001F5F108310924F0381508D3030F4E82F01
:10112000F0E0E251F84C0C94833630913F04C6C194
:10113000109158036090C401812E860C8092580350
:10114000811005C061946092C40110935803F0911E
:101150003F0480915803F9830FEF0A838B83BBC34D
:101160009FEF22969FAF229723969FAF23973091B0
:101170003F04375E21963FAF2197BE01665C7F4FEB
:10118000CE01805C9F4F0E94DA0570903F0421964B
:101190007FAE2197BE01635C7F4FCE01805C9F4F85
:1011A0000E94DA05E8EC2296EFAF2297BE01695C57
:1011B0007F4FCE01805C9F4F0E94DA051CAA1DAABA
:1011C0001EAAFDACF9AAEEACEAAACFACCBAA8E015E
:1011D0000F5C1F4F25E030E0AE014C5C5F4F70E0CC
:1011E00060E0CE0101960E9436059DAC9CAA2EAD12
:1011F0002DABBFACBEAA6AAC69AA8BAC8AAA6CAD97
:101200006BAB2AE030E0AE014C5C5F4F65E070E014
:10121000CE0101960E9436054AAD4CABBBADBDABCD
:10122000FCADFEAB5FA959ABD8ACDAAA89AD8BABEC
:101230002FE030E0AE014C5C5F4F6AE070E0CE0121
:1012400001960E943605B0E5EB2EB3E0FB2E16E5C5
:10125000A12E13E0B12E6701D6010D916D0186E03C
:101260000E945608282F021B08F400E0F60131976F
:101270000083AC14BD0481F704E513E0E3E0F0E083
:10128000D8018C912E918D0130E0820F932F911D0A
:10129000820F931FBF010E942E36D80112966C93C5
:1012A000E016F10669F70E9441088436A0F484E054
:1012B0000E94560890E0FC01E05BFC4F7F017080CB
:1012C0008AE00E945608815F772D382F730F08F44B
:1012D0007FEFD7017C93F12CF80121918F01422FF0
:1012E0004F70922F92959F70392F330F390FE1E095
:1012F000F0E0EC0FFD1FE30FF11D70819180B280D3
:10130000442309F42EC03396203F10F0FE0131969D
:101310004295407F642F6095769F070E70E0711DA7
:101320005081549F050E50E0511D750F292D269FA9
:10133000020E20E0211D5181352F349F030E30E035
:10134000311D922E930E2B2D269F020E20E0211D83
:101350005281652F649F060E60E0611DB22EB60EAD
:10136000112479AB9AAABBAA6F2DCE01C1960E9417
:10137000CD03F394B6E0FB12AFCFB1C281E001C060
:1013800080E00E94C907ABC280912503813009F437
:1013900048C0823009F481C0D0905603DFAA1FEF05
:1013A00018AF19AFBE016C5C7F4FCE01C7960E948B
:1013B000DA050E9441088093560389AB1AAB1BAB38
:1013C000BE016F5F7F4FCE01C1960E94DA05FE011C
:1013D0003196CE01C4967C0168E473E040E553E0A9
:1013E0008E010C5F1F4F34E68191D7012D917D0155
:1013F000821B990B97FD019695958795DB018D933F
:10140000BD01239F50011124DA01AD92BD92AD01BF
:101410000E171F0749F71092580371E070932503C8
:101420005EC2E8E4F3E020E533E08E010F5C1F4F7D
:101430005BE4E52E53E0F52E64E6C62ED12C9190A8
:10144000D9018D919D919D01890D911D97FC9A95D2
:1014500012978D939C93B6010E941A36D8016D9312
:101460008D01EE16FF0659F7B9A8B9826AA86A82FB
:101470008BA88B82CE0101960E94DA0260915803FC
:1014800041E0460F40935803673C08F428C2B2E09D
:10149000B09325031092580322C2F091580351E0F3
:1014A0005F0F50935803F73C08F419C210922503BC
:1014B00016C2309156033F5F3093560339838FEF46
:1014C0008A834CCE109156031F5F1093560300E0A1
:1014D000AA24AA941983AA82AB82602FCE01019616
:1014E0000E9428060F5F105F0630A1F7F8C18091B7
:1014F0004003811109C01092280310922903109211
:101500002A0351E05093400300915803023058F4ED
:1015100083E00E9456088093270384E00E945608C7
:101520008E5F809326030E5F00935803609126031D
:101530008091270390E073E0679F800D911D112437
:10154000885D9C4F7CE960E0202F30E0D90119963E
:1015500012E0472F633008F4419550E0FA01E20FA2
:10156000F31FEA3FF10554F4A417B5073CF0FC0162
:1015700036974081410F08F44FEF40836F5F039629
:101580007E5C653031F708E213E0D12C7724739448
:10159000F801B381B983F480FA82F581FB836D2D64
:1015A000CE0101960E94CD03D80113962C9113977A
:1015B000372D231B08F420E013962C9313971496D1
:1015C0005C911497531B08F450E0F8015483758123
:1015D000731B08F470E015967C93D3940D5F1F4F36
:1015E00096E0D912D5CF7BC100917203109173039D
:1015F000F8018081F0914B038F17E1F080934B034A
:1016000086E00E945608482FD8018C9163E00E9422
:101610000E36292F30E0E42FEE0FE40FC901805A77
:101620009C4FE80FF92FF11D8FEF8083285B3C4F13
:10163000F9018083BE016F5F7F4F92E1DB011D9254
:101640009A95E9F738E4632E33E0732E43E6A42E2F
:1016500043E0B42EAB017301A0E6B3E013968C9186
:10166000139790E025E0959587952A95E1F73D91B0
:10167000F70121917F018C01030F111D2017110625
:1016800019F014F0232F280FFA012193AF01AA16A5
:10169000BB0621F723E030E0ABE4EA2EA3E0FA2E0C
:1016A000D901A05ABC4F6B01C20ED31E48E453E0CF
:1016B00013968C91139790E0E5E095958795EA95C0
:1016C000E1F7FD013397A080B12CF5E0B594A79424
:1016D000FA95E1F79D90FA018190AF018C010A0D16
:1016E0001B1D090D111D8016110621F01CF0890D1E
:1016F000882E8A0CF60181926F01E416F506C1F678
:101700002D5F3F4F2F30310559F6ACE6B3E0AE0107
:10171000405F5F4F12E08D9190E025E095958795B1
:101720002A95E1F71296BC901297F30131913F018F
:101730004C018B0C911C8B0D3815190409F00CF41D
:10174000832FFA018193AF01311B08F430E0F301DC
:1017500031973083E614F704F1F642E150E080E679
:1017600093E00E94EF03BBC000E09AE0C92E66241C
:101770006A94E0917203F0917303013039F0023002
:1017800039F0F280FC9C702C112405C0718001C0DE
:101790007080770C770C79826A826B82802E880C3D
:1017A000682DCE0101960E94280679826A826B829A
:1017B00061E0680DCE0101960E9428060F5F03309C
:1017C000C1F68DC0409158034F5F493018F44093E3
:1017D000580385C01092580350914C03513091F03A
:1017E000523039F1A0905503AA2011F072E007C0E1
:1017F0008EEF0E9456088F5F8093550371E07093BF
:101800004C0330C0E0E5F3E060E07190711008C077
:101810008080882029F0DF0111978C92108261E08E
:1018200023E0E535F20789F761111CC010924C03E3
:1018300019C0A0E5B3E090E080E0E82F9D909920EA
:1018400061F0882329F0E150F0E0E05BFC4F9082EA
:10185000805B9C4FFC01108205C00196863091058B
:1018600061F7E4CF80E5E82E83E0F82EB12C10E09C
:10187000DD24DA94F701B1917F01BB2311F0BB2E77
:10188000BFEFB982DA82BB83612FCE0101960E943D
:1018900028061F5F163071F722C0E0917203F091A5
:1018A0007303618080914E03681639F030914D03C7
:1018B00060924E033F5F30934D0380914D0390E063
:1018C0006BE070E00E942E368F5F0E94600807C0B8
:1018D00019821A821B82CE0101960E940906CE5BF4
:1018E000DF4F0FB6F894DEBF0FBECDBFDF91CF91B3
:1018F0001F910F91FF90EF90DF90CF90BF90AF902E
:101900009F908F907F906F9008958091BA0390E0A0
:10191000FC01E952FB4FE491F0E0EE0FFF1FEB51A9
:10192000FC4FA591B4912C91FC01E551FB4FE49142
:10193000E2238091BB0391E0813019F0E11103C0F3
:1019400001C0E11190E081E08927089581E0909144
:10195000BF03911180E00895860F971FFC018081DD
:101960000895EF92FF921F93CF93DF93CDB7DEB729
:1019700028970FB6F894DEBF0FBECDBF10912E048E
:10198000113061F028960FB6F894DEBF0FBECDBFC0
:10199000DF91CF911F91FF90EF9008952CEA3CE0EA
:1019A0003A83298387E192E09C838B833E832D8356
:1019B00098878F830E9412041092800010928100F9
:1019C000109285001092840030918100386030932D
:1019D000810040917B034E5F40937B036AEF70E090
:1019E00070938900609388005091810051605093FA
:1019F0008100E980FA80F092F803E092F703AB816E
:101A0000BC81B093FA03A093F90389EE93E00E949E
:101A1000FE031093E9036091F9037091FA03E091DA
:101A2000F703F091F80390E080E009958093ED03CF
:101A3000EE24E394F12CF092F003E092EF0389EEB0
:101A400093E00E9423042D813E8130930A04209369
:101A500009048F81988590930C0480930B048BEF7D
:101A600093E00E94FE031093FB0360910B047091BE
:101A70000C04E0910904F0910A0490E080E00995DB
:101A80008093FF03F0920204E09201048BEF93E055
:101A90000E94230470916F00726070936F0072CF88
:101AA00080935D043BB12BB191E0892790E0919543
:101AB0008195910983278072992782278BB9089590
:101AC0008F929F92AF92BF92CF92DF92EF92FF924E
:101AD0000F931F93E1EEF2E000E010E098018281A5
:101AE000938181939193080F191F211D311D43E0AC
:101AF000EF31F407A1F743E440937C0050917A0062
:101B0000506450937A0080907A0086FCFCCF8091DC
:101B1000780090917900BC0180913204860F972F54
:101B2000911D9093200380931F03A9019801280F12
:101B3000391F411D511D85E05695479537952795CD
:101B40008A95D1F7A0913104B0E00E9498366B01DC
:101B50007C012AE030E040E050E00E94423649013A
:101B60005A018091DD029091DE02A091DF02B091D6
:101B7000E002281B390B4A0B5B0BDA01C901B7FFE6
:101B800007C0B095A095909581959F4FAF4FBF4FDF
:101B90000497A105B10524F1C701B60138EEC316BB
:101BA00033E0D306E104F10438F42AEF30E040E0FA
:101BB00050E00E9442360AC028EE33E040E050E098
:101BC0000E9442362E5F293008F028E02093DC0284
:101BD0008092DD029092DE02A092DF02B092E002DB
:101BE0008091DC0290912F04911103C0811101C0FA
:101BF00081E01F910F91FF90EF90DF90CF90BF9009
:101C0000AF909F908F900895CF930E94600DC82F42
:101C100080915D04C1111EC0813021F580E00E94D9
:101C2000500D67E080E00E94B20263E081E00E9414
:101C3000B20262E082E00E94B20267E083E00E94AA
:101C4000B20263E084E00E94B20262E085E00E949A
:101C5000B20208C0811103C081E00E94500D8C2F98
:101C60000E94C7028C2FCF910C941E0790913404D0
:101C7000992341F06CE00E940E3680E0911101C082
:101C80008CE0890F0895FC01108211821282138268
:101C90001482158216821782108608959F92AF9241
:101CA000BF92CF92DF92EF92FF920F931F93CF9349
:101CB000DF93EC017B016A018B8928898217A0F0F0
:101CC00040EA56E861E070E03B89321768F0415025
:101CD000510961097109C1F7CE010E94CA06CE01FE
:101CE0000E94E40681E080C0D7019C9091104DC015
:101CF00000E0C114D10411F0F6010481F701648100
:101D0000758186819781600F711D811D911D6532DE
:101D100071058105910508F066C09FB6F89410E042
:101D200084819581800F911F0E94A3365C019FBE24
:101D300084E0A114B10409F457C0F701448155812E
:101D400062817381C501800F911F0E94EF030C0D0A
:101D50001D1D95010C151D0599F0D8015E918D0191
:101D6000F90151939F01F70184819581A681B78183
:101D70000196A11DB11D84839583A683B783EACF05
:101D8000D7011396BC92AE9212971FB7F894BB88F6
:101D90008C899D890097F9F0DB887889D716D8F46B
:101DA000FA894BE050E0B701BBE0FB9F800D911D2D
:101DB00011240E94EF039B899F5F9B8B4A89242FEC
:101DC00030E02F5F3F4FF8884F5FF216130609F09F
:101DD0000CF440E04A8BB11003C0CE010E94E4062F
:101DE0001FBF898101C083E0DF91CF911F910F91C7
:101DF000FF90EF90DF90CF90BF90AF909F900895AD
:101E00002F923F924F925F926F927F928F929F920A
:101E1000AF92BF92CF92DF92EF92FF920F931F93F8
:101E2000CF93DF93CDB7DEB76B970FB6F894DEBFD5
:101E30000FBECDBF3C01562E5A8B498B0B8B1C8B92
:101E40002D8B3E8BDC0115968C91811164C1FA01BA
:101E50002180222009F45DC114E212191B8F0FB6F4
:101E600007FC28C0F1E06F130AC0812F90E0B0E0BA
:101E7000A0E08A159B05AC05BD0578F44CC1F301C3
:101E800040815181628173810B891C892D893E8932
:101E9000041715072607370711F491E001C092E0F7
:101EA000D3015B962C915B9758963C90321A391669
:101EB00008F431C131E0F3013583A989BA8912965A
:101EC0004C905481541521F16091B9006E7F60935C
:101ED000B9007091B9007D7F7093B90020E931E0BD
:101EE000411002C024E630E050E040E060E87EE3CC
:101EF00080E090E00E9464362051310935952795A5
:101F00002093B800E989FA898281D30114968C93D1
:101F100051108BC08301085F1F4FF3012080318077
:101F2000428053802B893C894D895E892215330577
:101F30004405550501F1A989BA895C9019825A8234
:101F40001C821B821D821E821F82188619861B8698
:101F50001A861196BC912C873D874E875F87B88B78
:101F6000AE01445F5F4FBE016F5F7F4FC8010E94AB
:101F70004E0E811121C010927A03E989FA89F0810D
:101F8000C4018114910411F48CEA92E031E03983A8
:101F9000FA83FC82EB82AD82BE82CF82D88619861C
:101FA0009B878A8750E040E0BE016F5F7F4FC8018A
:101FB0000E944E0E882319F0F3011582ADC08928C6
:101FC00009F0A2C0AFB6F894C0907503D090760324
:101FD000E0907703F0907803AFBEF301468057801E
:101FE000C40CD51CE11CF11CB0907A03B11017C0D1
:101FF000F301868097808928B9F31FB7F894409140
:1020000075035091760360917703709178031FBF39
:10201000C416D506E606F70638F782E068C0809158
:102020007903882309F470C062C0212C312C21016E
:102030002A143B044C045D0408F066C0E989FA895F
:1020400081804B895C896D897E89420D531D641D99
:10205000751D4C875D876E877F87888A8B8D90E0A2
:10206000B0E0A0E0A6019501221933094409550901
:102070002F8B388F498F5A8F82179307A407B50784
:1020800020F48F8B988FA98FBA8FA989BA899C90D9
:1020900019829A828701020D131D1C830B832F89DD
:1020A000388D498D5A8D2D833E834F8358871986ED
:1020B0001B861A86C3010896F30140815181628113
:1020C00073810B891C892D893E8904171507260702
:1020D000370719F450E040E003C0AE01445F5F4FA2
:1020E000BE016F5F7F4F0E944E0E882321F0D30107
:1020F00015961C9211C06F89788D898D9A8D260E48
:10210000371E481E591E94CFD30115961C9280E0AD
:1021100003C084E001C081E06B960FB6F894DEBF87
:102120000FBECDBFDF91CF911F910F91FF90EF9028
:10213000DF90CF90BF90AF909F908F907F906F90E7
:102140005F904F903F902F9008958F929F92AF9203
:10215000BF92CF92DF92EF92FF920F931F937A017B
:10216000A22EB12CD12CC12C062F10E030E020E0A3
:10217000AC01455F5F4F912C812C61E08091A403FD
:102180009091A5030E94000F91E0811101C090E0A1
:10219000892F1F910F91FF90EF90DF90CF90BF900C
:1021A000AF909F908F900895CF93DF930F92CDB70C
:1021B000DEB7498321E0AE014F5F5F4F0E94A5105B
:1021C0000F90DF91CF91089540E061E00C94D4101E
:1021D000CF93DF9300D00F92CDB7DEB7FC01DB01C8
:1021E0003C916AE0832F0E940E36982F990F980F2A
:1021F000990F930F998311962C911197822F0E941A
:102200000E36482F440F480F440F420F4A83129650
:102210005C91852F0E940E36782F770F780F770FFD
:10222000750F7B8323E0AE014F5F5F4FCF010E94AC
:10223000A5100F900F900F90DF91CF9108951F93ED
:10224000CF93DF9300D000D000D00F92CDB7DEB790
:10225000FC01DB013C916AE0832F0E940E36982F2F
:10226000990F980F990F930F998311961C911197BD
:10227000812F0E940E36282F220F280F220F210FA8
:102280002A8312964C911297842F0E940E36582F53
:10229000550F580F550F540F5B8313965C9113978E
:1022A000852F0E940E36782F770F780F770F750FD6
:1022B0007C8315964C911597242F30E014961C9131
:1022C00080ED97E0133010F48FEC97E0280F391F62
:1022D000A12FB0E0AF56BD4F8C91A52FAF50BB0BD7
:1022E0008A0F9B2F911D820F931F36952795369548
:1022F0002795820F931F67E070E00E941A368D8346
:102300002AE0812F622F0E940E36982F990F980F86
:10231000990F910F9E83842F0E940E36982F990F4C
:10232000980F990F940F9F8327E0AE014F5F5F4F87
:1023300063E0CF010E94A51027960FB6F894DEBF88
:102340000FBECDBFDF91CF911F9108958F929F92C5
:10235000AF92BF92CF92DF92EF92FF920F931F93B3
:10236000A42EB12CD12CC12C082F10E030E020E09D
:10237000912C812C7B014BEC53E061E08091A40314
:102380009091A5030E94000F1F910F91FF90EF9075
:10239000DF90CF90BF90AF909F908F9008951F9344
:1023A000CF93DF93CDB7DEB763970FB6F894DEBF58
:1023B0000FBECDBF6091E4037091E5038FEF61150F
:1023C000710509F437C042E150E0CE0101960E9448
:1023D000EF03DE01119630E013E0832F612F0E949E
:1023E0000E36E92FF0E0E553FC4F638DFD012081AF
:1023F0001196269F020E20E0211D20833F5F32317F
:1024000061F7112442E150E0BE016F5F7F4F8FEC16
:1024100093E00E94EF0342E16FEC73E081E00E94E1
:10242000A61185E58B8B41E0BE016D5E7F4F86E195
:102430000E94A61163960FB6F894DEBF0FBECDBF03
:10244000DF91CF911F910895FF920F931F93CF9328
:10245000DF9300D00F92CDB7DEB7F82E0DE514E074
:10246000F80181833BB12BB181E08F2590E09195FC
:102470008195910983278078992782278BB94BB161
:102480005BB18F2D90E0919581959109842780749F
:10249000992785278BB98F2D0E94500DF801F38263
:1024A00019821A821B82CE0101960E94DA020E94D2
:1024B000CF110F900F900F90DF91CF911F910F913F
:1024C000FF9008958F929F92AF92BF92CF92DF922A
:1024D000EF92FF920F931F937A01A22EB12CD12C71
:1024E000C12C062F10E030E020E0AC01455F5F4FCB
:1024F000912C812C60E08091A4039091A5030E940F
:10250000000F91E0811101C090E0892F1F910F9180
:10251000FF90EF90DF90CF90BF90AF909F908F9003
:102520000895CF93DF930F92CDB7DEB7198221E0E4
:10253000AE014F5F5F4F0E94621289810F90DF9161
:10254000CF91089561E00E949112882319F082953D
:102550008170089580E008956AE00E94911291E0F0
:1025600018160CF090E0892F08950F931F93CF93C6
:10257000DF93EC010E94B3066AEF70E080E090E028
:102580000E94600763E0CE010E94911263E0CE01D9
:102590000E94911287FF58C040E462E1CE010E9480
:1025A000D41040E060E0CE010E94D41047E06FE01C
:1025B000CE010E94D410DE01ED91FD918D010280CB
:1025C000F381E02DBD01CE0109951A821B821C8288
:1025D000E881F9810480F581E02DB801CE010995EB
:1025E000E881F9810280F381E02DB801CE010995DF
:1025F00081E08D838E831F82E881F9810480F581DB
:10260000E02DB801CE0109951A821B821C82E88157
:10261000F9810680F781E02DB801CE01099566EDBC
:1026200076E080E090E00E94600747E26FE0CE0134
:102630000E94D41064E670E080E090E0DF91CF91DA
:102640001F910F910C946007DF91CF911F910F9113
:1026500008950F931F93CF93DF9300D00F92CDB7C0
:10266000DEB78B0123E0AE014F5F5F4F6AE00E944F
:102670006212811131C029812F77822F90E034E0DE
:10268000959587953A95E1F7982F990F990F891BA2
:10269000880F820FF80180831A811F77812F90E0C5
:1026A00044E0959587954A95E1F7382F330F330F1E
:1026B000831B880F810F81834B814F77842F90E09C
:1026C00054E0959587955A95E1F7582F550F550F7A
:1026D000851B880F840F82830F900F900F90DF91DE
:1026E000CF911F910F910895FF920F931F93CF9356
:1026F000DF9300D00F92CDB7DEB78C01F62E23E02A
:10270000AE014F5F5F4F6AE00E946212882311F0B2
:1027100081E027C0298181E0F11080E08195922F2E
:1027200098279078922799833A81482F43274078B9
:1027300043274A835B818527807885278B8323E025
:10274000AE014F5F5F4F6AE0C8010E94A510811182
:10275000DFCFD801ED91FC910088F189E02DC8010F
:1027600009950F900F900F90DF91CF911F910F91CE
:10277000FF900895EF92FF920F931F93CF93DF93F3
:1027800000D000D000D00F92CDB7DEB78C017B0116
:1027900027E0AE014F5F5F4F63E00E94621281113C
:1027A0007FC029812F77822F90E034E0959587951F
:1027B0003A95E1F7982F990F990F891B880F820F8F
:1027C000F80182833A81832F90E044E095958795C4
:1027D0004A95E1F7482F440F440F841B880F830F5D
:1027E00083836B81262F30E054E0359527955A95E9
:1027F000E1F7822F880F880FF22FF81B8F2F880F99
:10280000860FF80184835C81252F30E064E03595E4
:1028100027956A95E1F7722F770F770F271B220F05
:10282000250F2583AD812A2F30E074E0359527955B
:102830007A95E1F7B22FBB0FBB0F2B1B220FAF5FB7
:102840002A0F20879E81292F30E0A4E03595279517
:10285000AA95E1F7322F330F330F231B220F290FD5
:1028600026834F81242F30E0B4E035952795BA9523
:10287000E1F7622F660F660F261B220F240F2783B6
:1028800021E08C3008F020E0F80121876CE00E9404
:102890000E3680E0911101C08CE0980FF80192870C
:1028A000F8013296D70119E001900D921A95E1F7DF
:1028B00027960FB6F894DEBF0FBECDBFDF91CF9144
:1028C0001F910F91FF90EF900895CF92DF92EF92BA
:1028D000FF92CF93DF93CDB7DEB729970FB6F89469
:1028E000DEBF0FBECDBFCE0101960E94430EBE01DA
:1028F0006F5F7F4F8FE194E00E94BA132B8130E02D
:10290000A0E1BEE00E9489366B017C013A81232F51
:1029100030E0ACE3B0E00E948936C60ED71EE81E58
:10292000F91E6F8151E0560FEDE2F4E02489213069
:10293000C1F48789908DA18DB28D462FC816D90616
:10294000EA06FB0620F041E0673008F4452F76895F
:10295000872F90E002C0959587954A95E2F780FD14
:1029600006C0379684E0E234F80701F720E02093B0
:102970005F0429960FB6F894DEBF0FBECDBFDF917E
:10298000CF91FF90EF90DF90CF9008954F925F929C
:102990006F927F928F929F92AF92BF92CF92DF926F
:1029A000EF92FF920F931F934701CC24CA94DC2C23
:1029B000E12CF12CC01AD10AE20AF30A6C157D054C
:1029C0008E059F0510F54090AD035090AE036090CA
:1029D000AF037090B00368017901C60ED71EE81EE0
:1029E000F91EC414D504E604F70478F4580169010B
:1029F0007A018B019C0145EB53E060E08091A403D8
:102A00009091A5030E94000F01C08FEF1F910F91BD
:102A1000FF90EF90DF90CF90BF90AF909F908F90FE
:102A20007F906F905F904F900895CF92DF92EF92DA
:102A3000FF920F931F93CF93DF936C01EB018A8575
:102A40009B8501968C159D0508F458C0AC85BD8505
:102A50009096AC15BD05B9F4F988F11002C00C943C
:102A60000000088119812A813B81398328834C81A8
:102A70005D815B834A831D830C83DD86CC86198A46
:102A800011E0188B03C0E888EE2029F1EE84FF8462
:102A90000A851B850C191D090132110510F000E291
:102AA00010E030E020E04C815D816E817F8188857F
:102AB0009985605E7F4F8F4F9F4FEC85FD856E0F30
:102AC0007F1F811D911D0E94C614811102C0188AAA
:102AD00002C031E0388BB6016F7177278C859D85F8
:102AE000C816D90620F00A80DB81C02D03C00990EA
:102AF000D881C02DC60FD71F888101C08DE5DF9119
:102B0000CF911F910F91FF90EF90DF90CF9008959C
:102B10008F929F92AF92BF92CF92DF92EF92FF92ED
:102B20000F931F93CF93DF9300D000D0CDB7DEB7C4
:102B30005A01C82ED12CCC0CDD1C70E06F5F7F4F8A
:102B4000C60ED71E812C912CF50102851385011527
:102B5000110511F09920C9F1B601680D711D660FBC
:102B6000771F90E080E08394F12CE12C04E010E0EA
:102B700020E030E0AE014F5F5F4F0E94C614982AFC
:102B800080E090E0DC0140E050E0BA01A1F44A812D
:102B900050E0542F4427052E000C660B770B8981DB
:102BA000482B8C8190E0982F8827092E000CAA0BC7
:102BB000BB0B2B81822BF50146835783608771877E
:102BC000841B950B93878287BFCF66817781808531
:102BD0009185428153810032110538F0F12CE12CAE
:102BE00000E210E020E030E004C030E020E0F12C12
:102BF000E12C0E94C6140F900F900F900F90DF9160
:102C0000CF911F910F91FF90EF90DF90CF90BF90E9
:102C1000AF909F908F900895EF92FF921F93CF9364
:102C2000DF93CDB7DEB728970FB6F894DEBF0FBE9F
:102C3000CDBF9E012F5F3F4F79018230C8F434E051
:102C4000839F90011124F901EC56FE4F4591549158
:102C5000F901EA56FE4F6591749183EC97E09A83EF
:102C600089835C834B839E838D8378876F833AC08F
:102C700092E1E3EFF1E0A7EDB1E0192F01900D92A1
:102C80001A95E1F7E5E0F2E0A5ECB1E001900D92D4
:102C90009A95E1F741EB57E05093E6014093E50147
:102CA0006AEB77E07093D4016093D3011EEF180FA5
:102CB00047ED51E060E0812F0E94881545EC51E01E
:102CC00061E0812F0E94881585E195E19A838983CF
:102CD000A7EDB1E0BC83AB839E838D83E5ECF1E08F
:102CE000F887EF83B70182E090E00E948504289680
:102CF0000FB6F894DEBF0FBECDBFDF91CF911F910D
:102D0000FF90EF900895F999FECFF89440E350E0DA
:102D100070E060E08DE294E00E94A535789408951B
:102D2000FC0184E2808321E02183128298E0938376
:102D300094839583268327831086118612861386B3
:102D40001486158616861786108A118A30EF328B04
:102D500047E0438BDF015496B9961C9211961C9262
:102D6000119712961C92129713961D921D921D9206
:102D70001C9216971796AE17BF0779F747E050E0F9
:102D800066E271E0CD010C94ED32EF92FF920F9369
:102D90001F93CF93DF93CDB7DEB7EDB6FEB640916C
:102DA000C20350E02DB73EB7241B350B0FB6F89485
:102DB0003EBF0FBE2DBF0DB71EB70F5F1F4FBC012B
:102DC000C8010E94ED32C8010E9410030FB6F894AA
:102DD000FEBE0FBEEDBEDF91CF911F910F91FF9010
:102DE000EF900895EF92FF920F931F93CF93DF938D
:102DF000082F7B0181E00E94241281E0809361040E
:102E00000E94430388E00E94C7021FEF1093E6036D
:102E100090E69093E7039093E8031093B300109229
:102E2000BD0310E0D0E0C0E0111103C0802F0E946C
:102E30000C1661E274E08FE194E00E94BA132091D5
:102E4000210420FF08C0DD2371F0CF5FC7010E947D
:102E50001003D0E008C0D11106C0CF5F8DE291E031
:102E60000E94C516D1E062E370E080E090E00E942D
:102E7000600730917B0311E0311101C010E0C837C9
:102E800010F0332351F04091BD031092BD03411166
:102E900004C00E94850C882339F20E94120455E078
:102EA00050935E031092610467E16093B3008091D8
:102EB00030040E94C70280913004DF91CF911F91AE
:102EC0000F91FF90EF900C941E07CF92DF92EF923C
:102ED000FF920F931F93CF93DF93CDB7DEB7CDB69D
:102EE000DEB68091C2032DB73EB7281B31090FB65D
:102EF000F8943EBF0FBE2DBF8DB79EB701967C01E3
:102F00000E94810310E010FF04C0C7010E9410035B
:102F10000BC000E03091C203031730F460E2802F51
:102F20000E94FA020F5FF6CF64E270E080E090E06A
:102F30000E9460071F5F1A3031F7C7010E9410031B
:102F40000FB6F894DEBE0FBECDBEDF91CF911F91BC
:102F50000F91FF90EF90DF90CF9008954F925F9286
:102F60006F927F929F92AF92BF92CF92DF92EF9239
:102F7000FF920F931F93CF93DF93CDB7DEB72B0153
:102F80003C01ADB6BEB68091C20390E02DB73EB70E
:102F9000281B390B0FB6F8943EBF0FBE2DBFEDB7FF
:102FA000FEB731967F01281B390B0FB6F8943EBF50
:102FB0000FBE2DBF8DB79EB701966C010E94810395
:102FC0008091C2039E2DF7019E2E991A981610F437
:102FD0001192FACF00E085E0982E10E03091C20304
:102FE0001317E8F4812F90E0F701E80FF91F4081F3
:102FF000411106C0113049F4F60151815A3329F4C8
:103000008C0D9D1DFC01608105C08AE00E94560860
:1030100060E3680F812F0E94FA021F5FDFCFC301B8
:10302000B2010E9460079A949110D7CF0F5F8091F0
:10303000C20390E002960817190609F084F40330E1
:1030400050F28091C2030E945608F701E80FF11D6B
:10305000608171E0760F70836111F3CFBCCF0FB642
:10306000F894BEBE0FBEADBEDF91CF911F910F9100
:10307000FF90EF90DF90CF90BF90AF909F907F90A8
:103080006F905F904F9008954F925F926F927F92F2
:103090008F929F92AF92BF92CF92DF92EF92FF9268
:1030A0000F931F93CF93DF93CDB7DEB76C01762ECE
:1030B00049015A014DB65EB6FC0101900020E9F7C6
:1030C0008F0101501109081B190B602E1127409127
:1030D000C203400F512F511D8DB79EB7841B950B16
:1030E0000FB6F8949EBF0FBE8DBFEDB7FEB73196F9
:1030F0007F0161110DC0CF010E9481038091C20345
:10310000A801B6018E0D9F2D911D0E94D23709C0D6
:10311000B601CF010E94D237C701800F911F0E94D4
:103120008103D12CC12C0E0D1F1D01501109FFEF81
:10313000EF1AFF0AC61490F4C7018C0D9D1D77206D
:1031400019F0C8018C199D090E941003C501B40132
:103150000E9460078FEFC81AD80AECCF0FB6F89418
:103160005EBE0FBE4DBEDF91CF911F910F91FF90BC
:10317000EF90DF90CF90BF90AF909F908F907F9017
:103180006F905F904F9008952F923F924F925F9271
:103190006F927F928F929F92AF92BF92CF92DF9267
:1031A000EF92FF920F931F93CF93DF9300D000D045
:1031B000CDB7DEB78C012DB73EB73C832B83809112
:1031C000C20390E0ADB7BEB7A81BB90B0FB6F89419
:1031D000BEBF0FBEADBFEDB7FEB731966F012DB6C6
:1031E0003EB6281A390A0FB6F8943EBE0FBE2DBE61
:1031F0008DB79EB701969A838983D80150968D9199
:103200009C91009771F00E94C5166AE070E080E022
:1032100090E00E94AE1768EE73E080E090E00E94BC
:103220006007F12C3090C20329E130E040E050E02B
:1032300060E0F31470F482ED92E00E9444188F2D48
:103240000E94BB03E981FA81EF0DF11D8083F394A5
:10325000E9CFF801868597850E944418D801129617
:103260008C910E94C702312CE32CF12CD8011C96C2
:10327000ED91FC911D97EE0DFF1D40814C90442077
:1032800041F0E091C203EC0DFD2DF11D319740831B
:1032900006C050E070E060E0C6010E945203B12C0D
:1032A000D8011696ED91FC911797EE0DFF1D8081C8
:1032B000B81620F5E091C203E81BFF0BEC0DFD1DD5
:1032C0009F012B0D311D14960D90BC91A02DAE0DBC
:1032D000BF1D8C91F90160818B0D0E94FA02D8010B
:1032E0001496ED91FC911597EE0DFF1D80811396BC
:1032F0006C918B0D0E94B202B394D2CF0E94B203A4
:10330000412C512C32010E94B203882309F48AC057
:103310000E94A903D8011C96ED91FC911D97EE0D1A
:10332000FF1D8823C1F050815F5F50831C96ED9193
:10333000FC911D97EE0DFF1D1A960D90BC91A02DCE
:10334000AE0DBF1D70809C90971418F5D80118968B
:103350008D909C9019C04081442391F0415040834E
:103360001C96ED91FC911D97EE0DFF1D18960D908A
:10337000BC91A02DAE0DBF1D90816C90961548F4A8
:10338000D8011A968D909C90D401AE0DBF1DAC90C3
:10339000A082D8011C96ED91FC911D97EE0DFF1DAA
:1033A0004081BC90BB2041F0E091C203EC0DFD2DAB
:1033B000F11D3197408306C050E070E060E0C60127
:1033C0000E945203B12CD8011696ED91FC911797EB
:1033D000EE0DFF1D8081B81608F075C0E091C203A4
:1033E000E81BFF0BEC0DFD1D9F012B0D311D1496ED
:1033F0000D90BC91A02DAE0DBF1D8C91F901608187
:103400008B0D0E94FA02D8011496ED91FC9115974C
:10341000EE0DFF1D808113966C918B0D0E94B20200
:10342000B394D1CFBFEF4B1A5B0A6B0A7B0AC3017F
:10343000B20128E833E140E050E00E944236672BB9
:10344000682B692B41F549015A01E1E08E2299244C
:10345000AA24BB24212CD8011696ED91FC91179734
:10346000EE0DFF1D30812316B0F41496ED91FC9102
:103470001597EE0DFF1D8081820D81149104A1042A
:10348000B10419F013966C9102C0F80162810E9498
:10349000B2022394E0CFF1EF4F16FAEB5F06F4E0AF
:1034A0006F06710498F010E05090C203151508F0F3
:1034B0004FC0E981FA81E10FF11D6081812F0E94E7
:1034C000B2021F5FF1CF412C512C32010E94A003A8
:1034D000882309F418CF0E94A0038111FCCF412C4E
:1034E000D8011696ED91FC911797EE0DFF1D6081A6
:1034F000461670F41496ED91FC911597EE0DFF1D94
:10350000808112966C91840D0E94B2024394E8CFA0
:103510003394F801E1803E1408F4A6CE88E00E94BE
:10352000C7020E9465176AEF70E080E090E00E9499
:10353000600700E0C090C2030C1560F4E981FA81D5
:10354000E00FF11D6081802F0E94B2020F5FF2CF69
:103550008FEF01C080E02B813C810FB6F8943EBF15
:103560000FBE2DBF0F900F900F900F90DF91CF9156
:103570001F910F91FF90EF90DF90CF90BF90AF9091
:103580009F908F907F906F905F904F903F902F9083
:1035900008954F925F926F927F92BF92CF92DF9287
:1035A000EF92FF920F931F93CF93DF93CDB7DEB7C8
:1035B0007C01B62E29013A01CDB6DEB60E94FD325D
:1035C00001962DB73EB7281B390B0FB6F8943EBFB6
:1035D0000FBE2DBF0DB71EB70F5F1F4FB701C8013C
:1035E0000E94F632A30192016B2DC8010E9444187B
:1035F0000FB6F894DEBE0FBECDBEDF91CF911F9106
:103600000F91FF90EF90DF90CF90BF907F906F90E1
:103610005F904F9008953F924F925F926F927F928A
:103620008F929F92AF92BF92CF92DF92EF92FF92D2
:103630000F931F93CF93DF9300D0CDB7DEB77C01FC
:103640002DB73EB73A832983A8EBBBE09A01AB01C3
:103650000E9498362B013C018091C203ADB7BEB7E2
:10366000A81BB1090FB6F894BEBF0FBEADBFEDB732
:10367000FEB731966F01D70113968D919C910097FB
:1036800071F00E94C5166AE070E080E090E00E9450
:10369000AE1768EE73E080E090E00E946007F701EB
:1036A0000281013021F40E94A903082701C000E033
:1036B00010E03090C203131590F429E130E040E0AF
:1036C00050E0602F82ED92E00E944418812F0E940A
:1036D000BB03F601E10FF11D80831F5FEACFD70125
:1036E00011961C911197812F90E0880F991F1596C4
:1036F000ED91FC91E80FF91F29E130E040E050E046
:10370000602F808191810E94C91A0E94B203812C8E
:10371000912C54010E94B203882309F449C00E94ED
:10372000A903882339F01F5FF7019080191538F03D
:1037300010E005C0111102C0D7011C911150812E5B
:10374000912C880C991CF7010281013021F50E940F
:10375000A9030827B12C3091C203B31658F429E10C
:1037600030E040E050E0602F82ED92E00E9444188B
:10377000B394F1CFD70115964D915C91840E951EAF
:1037800029E130E040E050E0602FF4018081918138
:103790000E94C91A09C0A580B6808A0C9B1CF4013E
:1037A000808191810E94C516812C912C54010AC000
:1037B000FFEF8F1A9F0AAF0ABF0A481459046A0420
:1037C0007B0400F10E94A003882309F4A3CF88E0C2
:1037D0000E94C7020E9465176AEF70E080E090E0E7
:1037E0000E94600700E04090C203041548F4F6010F
:1037F000E00FF11D6081802F0E94B2020F5FF3CFB6
:10380000812F01C08FEF69807A800FB6F8947EBE59
:103810000FBE6DBE0F900F90DF91CF911F910F9152
:10382000FF90EF90DF90CF90BF90AF909F908F90E0
:103830007F906F905F904F903F900895CF92DF926E
:10384000FF920F931F93CF93DF93CDB7DEB72B97E4
:103850000FB6F894DEBF0FBECDBF8C01DC011C9605
:10386000CD90DC901D97F601F08080913404811199
:103870000DC066E372E019967C936E93189783E30C
:1038800092E01B969C938E931A970EC08F2D0E94E8
:10389000360ED6018C9320E332E0F8013187208781
:1038A0004DE252E053874287C8010E94C41887FF47
:1038B00002C080E03FC0309134043130D1F5CE01F8
:1038C00001960E94A80752E0598371E0FBE0FF15C2
:1038D00008F070E07A83A8EBB1E0BD83AC8321EB04
:1038E00031E039872887EAEAF1E0FB87EA87CE01F1
:1038F00008969F838E8344EF51E060E070E0079765
:103900000E940B1B482F8F3FA1F2D8011C96ED910E
:10391000FC911D9780816CE00E940E3690831C966E
:10392000ED91FC91D08090E0413009F49CE0D90EFB
:10393000D08281E02B960FB6F894DEBF0FBECDBFCC
:10394000DF91CF911F910F91FF90DF90CF9008955D
:10395000CF93DF9300D000D0CDB7DEB722E0FC01DB
:103960002083128243EA51E05A8349836CE971E073
:103970007C836B83DE011196B683A58344EF51E00F
:1039800060E070E00E940B1B0F900F900F900F9063
:10399000DF91CF9108950F931F93CF93DF93EC01A5
:1039A0008B8910E000E0882341F029890C891D896A
:1039B0009BE0299F000D111D1124D8013C9131116C
:1039C00007C012968D919C91009711F00E943C3790
:1039D000F8010184F285E02D309711F08981099575
:1039E000F80100850023D1F01981111117C0202F93
:1039F00030E050E040E00FB607FE05C0CA01B90153
:103A00000E9460070BC0A0EABFE00E949836615098
:103A100071098109910911F00000F9CF4B89442304
:103A200081F05B8951505B8B7989272F30E02F5FC4
:103A30003F4F68897F5F6217130609F00CF470E04E
:103A4000798BBB89BB2339F0CE01DF91CF911F91D8
:103A50000F910C94E406DF91CF911F910F9108957F
:103A6000ADB7BEB71C970FB6F894BEBF0FBEADBFC3
:103A7000FC01B0913304238130E0448150E0858122
:103A800090E0EDB7FEB7B13049F0B23071F0348755
:103A9000238752874187908787830DC094878387C8
:103AA000328721875087478306C094878387528750
:103AB0004187308727838EE493E09683858327E0D0
:103AC00030E034832383728361830E940633ADB771
:103AD000BEB71C960FB6F894BEBF0FBEADBF08951B
:103AE000F999FECFF89440E350E070E060E00E9466
:103AF000B535789408952F923F924F925F926F92CE
:103B00007F928F929F92AF92BF92CF92DF92EF926D
:103B1000FF920F931F93CF93DF93CDB7DEB7A79795
:103B20000FB6F894DEBF0FBECDBF9DA38CA32DB7FB
:103B30003EB73FA32EA3CE0109960E949207ECA1A7
:103B4000FDA1808190E0EDB7FEB79087878386EC7A
:103B500091E09683858307E010E0148303838E0150
:103B6000055E1F4F128301830E940633ECA1FDA165
:103B700020802AA230915F0331503BA341E04A8765
:103B800058E05B876BE372E07E876D87AAE3B2E063
:103B9000B88BAF87CE0182969E8B8D8B29E332E066
:103BA0003A8B298BFE01B396FC8BEB8B188F0F8B16
:103BB0000FEB11E01A8F098F1FEF1093B300809164
:103BC000C20390E04DB65EB6481A590A0FB6F89493
:103BD0005EBE0FBE4DBEADB7BEB719967D01481A89
:103BE000590A0FB6F8945EBE0FBE4DBE8DB79EB794
:103BF00009961C01898D9A8D009771F00E94C51657
:103C00006AE070E080E090E00E94AE1768EE73E03A
:103C100080E090E00E94600700E05090C20329E13C
:103C200030E040E050E060E0051568F482ED92E09D
:103C30000E944418802F0E94BB03F101E00FF11D88
:103C400080830F5FEACF8F89988D0E9444188B85FF
:103C50000E94C702D12C0D2D10E0ED89FE89E00FE6
:103C6000F11F40816984662041F0E091C203EE0DAE
:103C7000FF2DF11D3197408306C050E070E060E0F9
:103C8000C7010E945203C12CEF85F889E00FF11F94
:103C90008081C816E0F4E091C203E81BFF0BEE0D33
:103CA000FF1DEC0DF11DAD85BE85A00FB11F8C91E0
:103CB00060818C0D0E94FA02ED85FE85E00FF11FF8
:103CC00080816C858C0D0E94B202C394DDCF0E946E
:103CD000B203812C912C54010E94B203882309F471
:103CE00076C00E94A903ED89FE89E00FF11F8823A9
:103CF00091F0B081BF5FB083ED89FE89E00FF11FC5
:103D0000AB89BC89A00FB11FB0803C91A989BA8949
:103D10003B15A0F017C09081992371F091509083CA
:103D2000ED89FE89E00FF11FA989BA89A00FB11FA3
:103D30009080AC909A1430F4AB89BC89A00FB11F6D
:103D40004C914083ED89FE89E00FF11F40800E9475
:103D50001204842D0E940C16ED89FE89E00FF11FDC
:103D60004081F985FF2341F0E091C203EE0DFF2D64
:103D7000F11D3197408306C050E070E060E0C7015C
:103D80000E945203C12CEF85F889E00FF11F80815A
:103D9000C81608F069C0E091C203E81BFF0BEE0DE6
:103DA000FF1DEC0DF11DAD85BE85A00FB11F8C91DF
:103DB00060818C0D0E94FA02ED85FE85E00FF11FF7
:103DC00080816C858C0D0E94B202C394DCCF9FEF82
:103DD000891A990AA90AB90AC501B40128E833E188
:103DE00040E050E00E944236672B682B692B01F5BA
:103DF00029013A01E1E04E22552466247724C12CA2
:103E0000EF85F889E00FF11F7081C71688F4ED8502
:103E1000FE85E00FF11F80818C0D6C8541145104EB
:103E20006104710409F46B850E94B202C394E8CF67
:103E3000F1EF8F16FAEB9F06F4E0AF06B104B8F08D
:103E400070907B03711010C00E9412048090C20316
:103E5000781408F054C0F101E70DF11D6081872D41
:103E60000E94B2027394F2CF812C912C54010E94D3
:103E7000A003882309F430CF0E94A0038111FCCF56
:103E8000ED89FE89E00FF11F5081ECA1FDA1508367
:103E90008DE294E00E94701D0E941204512CEF8567
:103EA000F889E00FF11F6081561658F4ED85FE8504
:103EB000E00FF11F80816B85850D0E94B202539443
:103EC000EECFD3942A85D21608F4C5CE88E00E949E
:103ED000C7020E9465176AEF70E080E090E00E94E0
:103EE000600710E0D090C2031D1548F4F101E10F06
:103EF000F11D6081812F0E94B2021F5FF3CF87E125
:103F00008093B30081E0EEA0FFA00FB6F894FEBE50
:103F10000FBEEDBEA7960FB6F894DEBF0FBECDBFA5
:103F2000DF91CF911F910F91FF90EF90DF90CF9095
:103F3000BF90AF909F908F907F906F905F904F90C9
:103F40003F902F9008951F920F920FB60F92112459
:103F50002F933F934F935F936F937F938F939F9391
:103F6000AF93BF93EF93FF93E091EB01F091EC01DE
:103F70000995FF91EF91BF91AF919F918F917F91A3
:103F80006F915F914F913F912F910F900FBE0F90C6
:103F90001F9018951F920F920FB60F9211242F9316
:103FA0003F934F935F936F937F938F939F93AF93C1
:103FB000BF93EF93FF93E091E901F091EA01099536
:103FC000FF91EF91BF91AF919F918F917F916F91F1
:103FD0005F914F913F912F910F900FBE0F901F90C7
:103FE00018951F920F920FB60F9211240F931F93E3
:103FF0002F933F934F935F936F937F938F939F93F1
:10400000AF93BF93CF93DF93EF93FF93C091A80338
:10401000D091A9038E010A5C1F4FFE018081882385
:1040200089F0A485B5851197B587A487AB2B51F48A
:104030002285338535872487A181B2813C91938184
:1040400039273C937296E017F10741F740917403CA
:10405000403420F44F5F409374031CC010927403EB
:104060005881552351F0E885F9853197F987E8871C
:10407000EF2B19F4CE010E9423046296C017D107DA
:1040800079F710917B03111105C060916F006D7F6E
:1040900060936F00FF91EF91DF91CF91BF91AF914E
:1040A0009F918F917F916F915F914F913F912F9150
:1040B0001F910F910F900FBE0F901F9018951F9298
:1040C0000F920FB60F9211242F933F934F935F934C
:1040D0006F937F938F939F93AF93BF93CF93DF9310
:1040E000EF93FF93C0917C03D0917D038091B90041
:1040F000887F883261F178F4803139F130F4882397
:1041000009F4B4C0883009F1B9C0883101F18032B6
:1041100009F441C0B3C0803409F48CC068F4803322
:10412000D1F1883309F0AAC05091BC005F7050688B
:104130005093BC001882A2C0803509F459C088355C
:1041400099F1883409F09AC026C07D8121C04E8142
:104150005F81688579858A859B85AC85BD85481793
:1041600059076A077B0708F083C0EE85FF858E81BB
:104170009F81A885B985AC01BD014F5F5F4F6F4F2F
:104180007F4F4E835F8368877987E80FF91F7081BF
:104190007093BB005FC09091B900987F903311F08D
:1041A000A6E065C0A7E063C02E813F8148855985A0
:1041B0006A857B858C859D852617370748075907B3
:1041C00008F056C03091BB00EE85FF858E819F813F
:1041D000A885B985AC01BD014F5F5F4F6F4F7F4F21
:1041E0004E835F8368877987E80FF91F308340C06B
:1041F0004E815F81688579858A859B85AC85BD8583
:10420000481759076A077B07A8F42091BB00EE8581
:10421000FF858E819F81A885B985AC01BD014F5F67
:104220005F4F6F4F7F4F4E835F8368877987E80FBB
:10423000F91F20834E815F81688579858A859B85FA
:10424000AC85BD850197A109B109481759076A07CF
:104250007B0728F43091BC003F70306C04C0309173
:10426000BC003F7030683093BC0008C0A8E0A98350
:10427000CE010E94CA06CE010E94CB1CFF91EF9195
:10428000DF91CF91BF91AF919F918F917F916F916E
:104290005F914F913F912F910F900FBE0F901F9004
:1042A00018951F921FB61F9211242F933F938F933F
:1042B0009F93AF93BF938091750390917603A091E4
:1042C0007703B09178033091590323E0230F2D3702
:1042D00020F40196A11DB11D05C026E8230F02960A
:1042E000A11DB11D2093590380937503909376030C
:1042F000A0937703B093780380915A0390915B0366
:10430000A0915C03B0915D030196A11DB11D809346
:104310005A0390935B03A0935C03B0935D03BF913A
:10432000AF919F918F913F912F911F901FBE1F9032
:1043300018951F920F920FB60F9211242F933F934F
:104340004F935F936F937F938F939F93AF93BF939D
:10435000CF93EF93FF9380915E04882309F476C096
:104360005F9A209124032F5F20932403263060F06E
:10437000309123033F5F3C3018F43093230302C095
:104380001092230310922403C09124038C2F0E94C7
:10439000BB03E82FF0E0EE0FFF1FE55EFD4F4091FD
:1043A00023038081918102C0969587954A95E2F713
:1043B000E0E080FF21C05091C203C51790F48C2F1C
:1043C00090E0880F991F6091C3037091C403860F1A
:1043D000971FFC018081E82FEF77881F8827881FAF
:1043E00002C0E0E080E0E052FF0BEC5CFE4F9491F5
:1043F000E82FEE0FEE0FE92B299875E02A98EE23AF
:1044000031F090912403971302C0289A01C0289894
:1044100000002A9A0000715088F787E090E0F0E0F1
:104420002A989F01082E02C0359527950A94E2F735
:1044300020FF02C0289A01C0289800002A9A000094
:10444000019770F700000000299A5F98FF91EF91A3
:10445000CF91BF91AF919F918F917F916F915F911C
:104460004F913F912F910F900FBE0F901F90189575
:104470001F920F920FB60F9211242F933F934F93D9
:104480005F936F937F938F939F93AF93BF93EF93BC
:10449000FF9380912203811122C021E02093220307
:1044A000E091A403F091A5033581311116C0A895C0
:1044B000789440916004413081F4509121035F5F12
:1044C000503119F05093210308C0109221038091BC
:1044D00040040E9460080E94CF1110922203FF91B5
:1044E000EF91BF91AF919F918F917F916F915F916C
:1044F0004F913F912F910F900FBE0F901F901895E5
:104500000E94CD370F931F93CF93DF9300D00F926C
:10451000CDB7DEB780919C03811185C08FEF9FEFEF
:10452000DC0180937E0390937F03A0938003B0937C
:10453000810321E0209382031092830384E690E0BC
:1045400090938503809384031092860310928703CF
:104550002093880390938A03809389038CE290E0F0
:104560000E94A336FC019C01245D3F4F14821582FA
:10457000168217821086128611863B962E173F07E9
:10458000A9F790939B0380939A0384E0809396030A
:10459000109299031092970310929803EDEFF4E0B4
:1045A0008491E9EEF4E0E491F0E0EE0FFF1FE353B5
:1045B000FB4FA591B491EC91E82BEC93EEEFF4E076
:1045C0008491EAEEF4E0E491F0E0EE0FFF1FE35394
:1045D000FB4FA591B491EC91E82BEC938091B9003D
:1045E0008E7F8093B9008091B9008D7F8093B90050
:1045F0008CE08093B8008091BC0084608093BC0004
:104600008091BC0081608093BC008091BC0080647C
:104610008093BC0086E893E090937D0380937C03B5
:1046200081E080939C038EE793E09093A5038093B1
:10463000A40310925D0410925E0410925F04109225
:104640006004109261048DE294E00E94901682EA68
:1046500092E09093200480931F0481E294E00E94F2
:10466000430E10922A0410922B0481E080932C04B4
:104670008CEB92E09093200480931F041092E90346
:104680001092FB0310920D048EE089838FE08A83E1
:104690001B829E012F5F3F4FA9EEB3E0AE014C5F3E
:1046A0005F4FF90181919F01882331F190E0FC0176
:1046B000E551FB4F649113966C93139789529B4F6E
:1046C000FC017491E72FF0E0EE0FFF1FE353FB4F67
:1046D0000591149112961C930E931197FC018491ED
:1046E000E82FF0E0EE0FFF1FED53FB4F8591949103
:1046F000FC017081672B608352964217530709F0C3
:10470000D0CF89EE93E09093A9038093A8031092F1
:10471000CB031092CC0381E08093CD030E9425054A
:104720001092E5031092E4038FEF8093E60380E696
:104730008093E7038093E8031092C2031092C603AC
:104740001092C5031092C8031092C7031092CA03B7
:104750001092C9038CE090E00E94A336FC019C01FA
:10476000245F3F4F108211823296E217F307D1F790
:104770009093C4038093C303892B19F086E0809340
:10478000C20383E08093B80382E08093B90384E09E
:104790008093BA031092BB031092BC031092BD0326
:1047A0001092BE031092BF031092C1031092C00377
:1047B000EFEEF4E08491EBEDF4E0E491F0E0EE0F45
:1047C000FF1FED53FB4FA591B4919C91E82FE0950D
:1047D000E923EC938091B80390E0FC01E551FB4F95
:1047E0002491FC01E952FB4FE491F0E0EE0FFF1F32
:1047F000ED53FB4FA591B4918C91E22FE095E82306
:10480000EC938091B90390E0FC01E551FB4F2491BA
:10481000FC01E952FB4FE491F0E0EE0FFF1FED5376
:10482000FB4FA591B4918C91E22FE095E823EC9396
:104830002BE436E03093EA012093E901809169008E
:104840008C7F816080936900E89A3093EC0120931B
:10485000EB0180916900837F846080936900E99A0D
:1048600088EB93E09093A7038093A60387E580935A
:10487000AA0380E490E09093AC038093AB0380E0C4
:1048800090E8A0E0B0E08093AD039093AE03A093D6
:10489000AF03B093B0031092B5031092B60381E05A
:1048A0008093B70382E090E0A0E0B0E08093B10392
:1048B0009093B203A093B303B093B4030F900F90FF
:1048C0000F90DF91CF911F910F910895CDB7DEB773
:1048D000C258D1090FB6F894DEBF0FBECDBF789491
:1048E00084B5826084BD04B5016004BD15B5126055
:1048F00015BD25B5216025BD30916E003160309326
:104900006E001092810040918100426040938100CE
:1049100050918100516050938100609180006160EE
:10492000609380007091B10074607093B1009091B9
:10493000B00091609093B000A0917A00A460A09321
:104940007A00B0917A00B260B0937A00E0917A0078
:10495000E160E0937A00F0917A00F068F0937A00D9
:104960001092C100229A209A219A579A559A569AE3
:104970003B98389A399A88E10EE00FB6F894A895DA
:10498000809360000FBE009360001DE717BD20916B
:104990006E00226020936E001092B0001092B10061
:1049A0001092B2003091B00032603093B00040916C
:1049B000B10045604093B100509170005260509337
:1049C00070001E0128E5220E311CC1010E94430E19
:1049D00030927303209272030E94831660912D041B
:1049E000643251F0CE010D960E949016CE010D96C4
:1049F0000E94701D0E94831601E074E57093CB0342
:104A00000093CC030093CD030E94250595E59D8777
:104A100041E0BE01635F7F4F87E10E94A6110093D2
:104A2000CE030D8741E0BE01635F7F4F80E00E94AF
:104A3000A61143E050E06FE381EE93E00E941A0577
:104A400043E061EE73E083E10E94A611A0E6B3E0CB
:104A5000B093E503A093E403809130040E941E0705
:104A6000E6EAFCE0F093C603E093C50385E89CE02A
:104A70009093C8038093C70326E337E03093CA03BB
:104A80002093C903809130040E94C70286EC93E012
:104A90000E94C516B7E1B093B30061E070E080E01A
:104AA00090E00E94600781E00E9424128FE194E070
:104AB0000E94B5120E94651441EB5CE05093C10363
:104AC0004093C0035090AA034090B10357FC04C028
:104AD000FFEFF40DF43010F0412C512C5092B5033F
:104AE0004092B60311E01093B703F12CE12C01E0E2
:104AF00010E020E030E04FE553E060E070E0CB01F3
:104B00000E94C61450915F033FEF350F5E5F3E3F3A
:104B100008F052E050935F0360903E0470905F0392
:104B2000671430F010923E048DE294E00E94701DF4
:104B300012E4E12E14E0F12E0DE214E0D8015596B6
:104B40008C90559790905F03891430F055961C9285
:104B50008DE294E00E94701D095F1F4FE016F10680
:104B600069F710E0A0903004A11002C00E94040E6A
:104B7000F101B080B1018FE194E00E94BA13D1013C
:104B80006C91B61609F444C1662321F06E3109F424
:104B9000C9C0F1C0C0903604D0903704E09038040A
:104BA000F090390480903A0490903B04A0903C042B
:104BB000B0903D040091720310917303C814D9049E
:104BC000EA04FB0449F1F801228130E0A0E1BEE0F3
:104BD0000E9489362B013C01218130E0ACE3B0E03A
:104BE0000E948936DC01CB01840D951DA61DB71DE1
:104BF0007081870F911DA11DB11D88169906AA0607
:104C0000BB0611F481E006C0C816D906EA06FB0609
:104C100019F480E00E942412D80112962C9130E001
:104C2000A0E1BEE00E9489366B017C01F801218180
:104C300030E0ACE3B0E00E948936C60ED71EE81E15
:104C4000F91EEDE2F4E030E020E09489913019F5AE
:104C5000868990E0D8011696BC9102C095958795FB
:104C6000BA95E2F780FF17C08789908DA18DB28D2C
:104C7000C816D906EA06FB0671F447E0429FF00128
:104C8000439FF00D1124E35DFB4F66E574E08589D9
:104C90000E94F21606C02F5F3F4F37962330310532
:104CA000A1F60E946514209135042130D9F50E94A7
:104CB000430322E330E040E050E060E083EB93E028
:104CC0000E94C91AB1018FE194E00E94BA13F10168
:104CD00082810E94360ED1012C9130E0EDB7FEB7F3
:104CE0003487238711962C9130E03287218790E01A
:104CF000908787836EE473E07683658307E010E036
:104D0000148303838E0101591F4F128301830E9474
:104D1000063322E330E040E050E060E0C8010E944A
:104D2000441875C0D101DC90DD2029F1F0913504E3
:104D30001EEF1F0F1230F8F4F33019F486E594E0FB
:104D400009C0BE0161597F4FC1010E94301DCE01D3
:104D500081599F4F0E9410030E94430364E170E059
:104D600080E090E00E94AE176AEE7BE080E090E089
:104D70000E9460074CC0F101F780F11005C001E00E
:104D800030913404313009F000E060915F0480E03C
:104D90000E942B0361E081E00E942B0361E083E02D
:104DA0000E942B03602F85E00E942B03D1011296F5
:104DB0008C910E94360EF101208130E0ADB7BEB774
:104DC0001C963C932E931B97218130E01A963C93BE
:104DD0002E93199790E018969C938E9317978EE4D4
:104DE00093E016969C938E93159747E050E01496A7
:104DF0005C934E9313978E0101591F4F12961C938B
:104E00000E9311970E940633C8010E94100310E010
:104E10004090BD031092BD03442031F050905E03DA
:104E2000552041F00C9466320E94850C8111F6CF1A
:104E30000C94693250915E04511105C081E00E94CA
:104E400024120C9466320E94430366246394609299
:104E500061040E94850C882309F44CC0BE0161598D
:104E60007F4FC1010E94301DCE0181599F4F0E948A
:104E70001003B0E4AB2EBDE0BB2EB3E0CB2ED12CA3
:104E80000E94850C882359F0B1E0AB1AB108C10823
:104E9000D108B1F780E00E9424120C946132C1580D
:104EA000DF4F1882CF57D04072E0E72EF12CEDEDA6
:104EB000CE2EE1E0DE2E8E01015B1F4FF6EDAF2E10
:104EC000F1E0BF2EAFEC8A2EA1E09A2E60E4462ED0
:104ED0006DE0562E63E0662E712C0E94850C8111C8
:104EE0000C948332E1E04E1A510861087108A9F769
:104EF0000C94613281E00E94500D88E00E94C7024C
:104F00007FEF7093E60390E69093E7039093E803B6
:104F1000CE0188599F4F0E94A807B9E0A996BFAF5C
:104F2000A997AA961FAEAA97AB966FAEAB978E01C4
:104F3000035C1F4F42E150E061EA73E0C8010E9448
:104F4000ED32AF961FAF0EAFAF9746E950E060E08D
:104F500070E0CE0188599F4F0E940B1B87FF02C053
:104F60000C945932EFEFE80FE83038F40E2E000CB5
:104F7000FF0BE550F84C0C9483368EE092E09E8750
:104F80008D87A7E0B2E0B88BAF8760E072E07A8BE4
:104F9000698B29EF31E03C8B2B8B42EF51E05E8B2C
:104FA0004D8BEBEEF1E0F88FEF8B80904104909009
:104FB000480412E0190D00914F040C5FCE01815B93
:104FC0009F4F0E94A80793E060969FAF60976296FC
:104FD0006FAE6297E82DF0E0EE0FFF1FADE0B0E09E
:104FE000AC0FBD1FEA0FFB1FA080B180A396BFAE20
:104FF000AEAEA397E12FF0E0EE0FFF1FEA0FFB1F0D
:10500000C080D180A596DFAECEAEA597E02FF0E0B0
:10501000EE0FFF1FEA0FFB1F60807180A7967FAE27
:105020006EAEA79781E690E08C0F9D1F66969FAFAE
:105030008EAF669744EF51E060E070E042970E94C7
:105040000B1B982E87FF02C00C94593237E0830265
:1050500080011124035D1B4FF801F4886196FFAEB7
:105060006197CE01815B9F4F0E94A81C782E87FF1D
:1050700002C00C945932882351F071E0F80156892E
:10508000511101C070E0D80154967C9303C0F8011F
:10509000148A912C8DE294E00E94701D772011F407
:1050A0000C945932CE010D960E949207F7E09F9E14
:1050B00080011124035D1B4FF801A788B08CC18CBF
:1050C000D28CC601B50120E13EE040E050E00E94F4
:1050D0004236E22EBCE34B2E512C612C712CC601C2
:1050E000B501A30192010E944236CA01B901A30190
:1050F00092010E944236B62E572E8E2D0E94360EF9
:10510000EDB7FEB7B186528690E0908787838CE139
:1051100092E09683858367E070E0748363832FE475
:1051200030E02C0F3D1F328321830E940633A2966C
:10513000EFAEA297A396BFAEA39742E04E87AEE331
:10514000B2E0BA8BA98BECE3F2E0FC8BEB8B81E64F
:1051500090E08C0F9D1F9A8F898F6FE470E06C0F29
:105160007D1F7C8F6B8F25E132E03E8F2D8FCE012E
:105170000D960E941E1C882311F40C945932E98D5F
:10518000FA8D208130E0A0E1BEE00E9489366B01FB
:105190007C01218130E0ACE3B0E00E948936C60E8C
:1051A000D71EE81EF91EF801C78AD08EE18EF28E56
:1051B0008DE294E00E94701D88248A94F8E04F2EBE
:1051C00066246394772473947801F6E1EF0EF11C62
:1051D000CC24C394D12CCE018F599F4F0E94A80795
:1051E000A2964FAEA2978394A3968FAEA397A49650
:1051F0006FAEA49748E552E05E874D87A1E5B2E027
:10520000B88BAF878AE492E09A8B898B63E472E073
:105210007C8B6B8B2CE332E03E8B2D8BE5E3F2E055
:10522000F88FEF8B4EE252E05A8F498FA7E2B2E03F
:10523000BC8FAB8F8DE090E08C0F9D1FA8969FAF29
:105240008EAFA8977092BF0344EF51E060E070E02A
:10525000CE018F599F4F0E940B1B882E96E0981706
:1052600010F40C94DB32CE01815B9F4F0E94A807A3
:10527000A82C082C000CBB088FEFA81AB80AF7015D
:10528000808190E00A2C02C0959587950A94E2F7F8
:10529000817061968FAF6197CE01815B9F4F0E94B5
:1052A000A81C87FF02C00C945932F7013081782F77
:1052B00071957327A60101C0440FAA94EAF77423DD
:1052C0007327708351E0711101C050E0D8015496EA
:1052D0005C938DE294E00E94701D7DCFCE01815BD6
:1052E0009F4F0E94A80719E060961FAF60978091BA
:1052F000300461968FAF6197AEE9B2E06496BFAFBC
:10530000AEAF649767E972E07E876D8720E932E08F
:10531000388B2F87E9E8F2E0FA8BE98B42E852E01C
:105320005C8B4B8B0BE712E01E8B0D8BA4E7B2E07E
:10533000B88FAF8B6DE672E07A8F698F26E632E028
:105340003C8F2B8FEFE5F2E0FE8FED8F4DE050E0CC
:105350004C0F5D1F66965FAF4EAF66970E94C70207
:1053600080913004811101C081E00E941E07EDB6DA
:10537000FEB66090C203ADB6BEB6A618B1080FB6B1
:10538000F894BEBE0FBEADBE8DB79EB70D966C0134
:1053900064968EAD9FAD6497009771F00E94C5161C
:1053A0006AE070E080E090E00E94AE1768EE73E083
:1053B00080E090E00E94600762960FAD6297013036
:1053C00021F40E94A903082701C000E010E05090DA
:1053D000C203151590F429E130E040E050E0602F61
:1053E00082ED92E00E944418812F0E94BB03F601D7
:1053F000E10FF11D80831F5FEACF61961FAD6197BA
:10540000812F90E0880F991F6696EEADFFAD6697ED
:10541000E80FF91F29E130E040E050E0602F808183
:1054200091810E94C91A0E94B203812C912C5401CF
:105430000E94B203882309F46EC00E94A903882346
:10544000B1F01F5F6096FFAD60971F1710F4111148
:1054500020C00E94600D182F811101C011E0812F22
:105460000E94C702812F0E941E0710E018C0111170
:1054700003C060961FAD6097115059F40E94600DF3
:10548000082F811101C001E0802F0E94C702802FE8
:1054900004C0812F0E94C702812F0E941E07A12EE7
:1054A000B12CAA0CBB1C62960FAD6297013021F59E
:1054B0000E94A9030827912C9091C203991658F4D1
:1054C00029E130E040E050E0602F82ED92E00E9460
:1054D00044189394F1CF6696AEADBFAD6697AA0E11
:1054E000BB1E29E130E040E050E0602FF5018081F3
:1054F00091810E94C91A0BC066964EAC5FAC66974C
:10550000A40CB51CF501808191810E94C516812CE7
:10551000912C540116C0FFEF8F1A9F0AAF0ABF0AE1
:1055200021E6821623EE920626E1A206B10448F097
:10553000809130040E94C702809130040E941E07AF
:105540008FC40E94A003882309F472CF88E00E94D0
:10555000C7020E9465176AEF70E080E090E00E9449
:10556000600700E03091C203031748F4F601E00F32
:10557000F11D6081802F0E94B2020F5FF3CF0FB642
:10558000F894FEBE0FBEEDBE17FD93C71093300416
:105590008DE294E00E94701DD0903004D11089C734
:1055A000CE010D960E9492078091310490E0ADB734
:1055B000BEB718969C938E9317976CEA72E0169676
:1055C0007C936E93159767E0662E712C14967C92EF
:1055D0006E9213972FE430E02C0F3D1F12963C93F0
:1055E0002E9311970E9406338E010F591F4FE090A2
:1055F0003104F801E082FF24F394FE8643E452E094
:105600005A8B498B82E492E09C8B8B8B1A8F098F8B
:10561000A1E4B2E0BE8BAD8B60E472E0788F6F8B5B
:105620002FE430E02C0F3D1F3C8F2B8FE5EAF2E09A
:10563000FE8FED8FCE010D960E94C41887FD39C7ED
:10564000E98DFA8D5081509331048DE294E00E94EF
:10565000701DCE010D960E9492078091320490E059
:10566000ADB7BEB718969C938E9317974CEB52E04C
:1056700016965C934E93159714967C926E921397A0
:105680008FE490E08C0F9D1F12969C938E93119740
:105690000E94063370903204F8017082FE8667E43F
:1056A00072E07A8B698B26E432E03C8B2B8B1A8F6D
:1056B000098F05E412E01E8B0D8BA4E4B2E0B88FD5
:1056C000AF8B4FE450E04C0F5D1F5C8F4B8F85EB31
:1056D00092E09E8F8D8FCE010D960E94C41887FD9B
:1056E000E8C6E98DFA8D7081709332048DE294E002
:1056F0000E94701DCE010D960E94A807B0902F0445
:10570000BE8665EC72E0798B688BCE010D960E94A7
:10571000A81C87FDCEC6817080932F04F1C0CE01F6
:105720000D960E94A80792E09D87D0903404DE86F3
:105730006AED72E0798B688B8E01015B1F4F83ED00
:1057400092E0D80111969C938E934CEC52E0139604
:105750005C934E9312971B8B0A8B44EF51E060E0F1
:1057600070E0CE010D960E940B1B87FDA2C68093B0
:1057700034048DE294E00E94701DCE010D960E94CB
:10578000A80733E03D87E0903304EE86E6EFF2E0D1
:10579000F98BE88B2FEE32E0F8013183208368EE3D
:1057A00072E07383628381EE92E0958384831B8B26
:1057B0000A8B44EF51E060E070E0CE010D960E944C
:1057C0000B1B87FD76C6809333048DE294E00E9424
:1057D000701DCE010D960E94A80770902E047E8643
:1057E000ADEFB2E0B98BA88BCE010D960E94A81C3C
:1057F00087FD5FC6817080932E048DE294E00E9445
:10580000701DC8010E94A80754E0D8015C93F09075
:1058100035041196FC92119740E253E014965C9384
:105820004E93139729E133E03E872D87E2E1F3E0C1
:10583000F88BEF876BE073E07A8B698B84E093E001
:105840009C8B8B8B4DE050E04C0F5D1F16965C934C
:105850004E93159744EF51E060E070E0C8010E945C
:105860000B1B87FD26C6809335048DE294E00E94D1
:10587000701D77E0D8011D927A95E9F7CE010D965B
:105880000E94920756E0B52EE6E5F4E0D8018B2C95
:1058900001900D928A94E1F7BE016F597F4FE6E5C2
:1058A000F4E0DB014B2C01900D924A94E1F7B1E05A
:1058B000BD87BE862AE532E03A8B298BE4E5F2E02B
:1058C000FC8BEB8B7A8F698F8EE492E09E8B8D8BB5
:1058D00048E452E0588F4F8B1C8F0B8F07E213E088
:1058E0001E8F0D8FCE010D960E94C41887FDE1C555
:1058F000E98DFA8DA6E5B4E001900D92BA94E1F736
:105900008DE294E00E94701DD4C5CE010D960E94D8
:105910009207912C29E333E03E8F2D8F409036047F
:10592000509037046090380470903904C301B2017C
:1059300020E13EE040E050E00E944236A22E4CE3DF
:10594000C42ED12CE12CF12CC301B201A701960188
:105950000E944236CA01B901A70196010E9442364F
:10596000562E8A2D0E94360E252D30E0EDB7FEB75B
:105970003287218790E0908787836EE273E0768399
:10598000658307E010E0148303836E01FFE4CF0E0C
:10599000D11CADB7BEB71296DC92CE9211970E9481
:1059A0000633FE01EF59FF4FA082518272E07E87DD
:1059B00082E692E09A8B898B40E652E05C8B4B8BBF
:1059C000FA8FE98FDC8ECB8ECE010D960E941E1CC5
:1059D000882309F46EC5E98DFA8D208130E0A0E1BD
:1059E000BEE00E9489366B017C01218130E0ACE38E
:1059F000B0E00E948936C60ED71EE81EF91E992017
:105A000049F0C0923A04D0923B04E0923C04F092F8
:105A10003D0408C0C0923604D0923704E0923804A6
:105A2000F09239048DE294E00E94701DF1E09F161F
:105A300009F43FC59924939420E433E03E8F2D8FE1
:105A400040903A0450903B0460903C0470903D04B8
:105A50006DCFCE010D960E949207CE01815B9F4FC4
:105A60000E94430EBE01615B7F4F8FE194E00E9474
:105A7000BA1362968FAD62970E94360E60962FAD74
:105A8000609730E0EDB7FEB73487238761962FAD7E
:105A9000619730E03287218790E0908787832EE4FA
:105AA00033E03683258367E070E0748363838E017F
:105AB0000F591F4F128301830E940633FE01EA58DB
:105AC000FF4F62968EAD9FAD6297982789279827E2
:105AD000918380836096BFAD6097B28353E05E8709
