:100000000C940E010C9436010C9436010C943601BC
:100010000C9436010C9436010C9436010C94DD0CD2
:100020000C9436010C9436010C9436010C94360174
:100030000C9436010C9436010C9436010C94360164
:100040000C94C10B0C947B0D0C947A0B0C94540BF8
:100050000C9436010C9436010C9436010C94360144
:100060000C94090C0C9436010009121B1F160D0488
:10007000050C171E1A1308010A031811151C070E88
:100080000F061D141019020B141D060F0B02191078
:100090001118030A0E071C151E170C050108131A68
:1000A0001B120900040D161F131A01080C051E1758
:1000B000161F040D09001B1219100B02060F141D48
:1000C0001C150E07030A1118070E151C18110A0338
:1000D000020B10191D140F060D041F16121B000928
:1000E00008011A13171E050C1D140F06020B101918
:1000F00018110A03070E151C171E050C08011A1308
:10010000121B00090D041F1609001B12161F040DF7
:100110000C051E17131A0108030A11181C150E07E7
:10012000060F141D19100B020E071C151118030AD7
:100130000B021910141D060F040D161F1B120900C7
:100140000108131A1E170C051A130801050C171EB7
:100150001F160D040009121B1019020B0F061D14A7
:10016000151C070E0A03181100246051DA35CA2045
:100170004122F0320C100431EB22B9BA72DADBA260
:10018000FBFA888A39185AB5BBF35BC93BD9D1FA57
:1001900073222B7349E3E3EBF1F2C1DA596B6B6B1A
:1001A000737AB9C952AAE00840BB5B193BF9D1FA8E
:1001B00053022B734913131BF1F211DA590B0B0B7A
:1001C000737AB901410280FF00000000240027007B
:1001D0002A0000000000250028002B00040404046D
:1001E00004040404020202020202030303030303E1
:1001F00001020408102040800102040810200102BE
:100200000408102000000008000201000003040799
:100210000000000000000000A40D571111241FBEB3
:10022000CFEFD8E0DEBFCDBF11E0A0E0B1E0E0EA63
:10023000F9E202C005900D92AC35B107D9F724E080
:10024000ACE5B1E001C01D92AA3FB207E1F711E0B1
:10025000CDE0D1E004C02197FE010E948C13CC3088
:10026000D107C9F70E94DD0E0C94C3140C94000052
:100270008093E60381E08093E7030895FC014081C9
:100280003181228190E080E0E091EE04F091EF0472
:10029000E80FF91F4083E091EE04F091EF04E80FBE
:1002A000F91F3183E091EE04F091EF04E80FF91F9C
:1002B000228303968231910539F70895FC01663057
:1002C000F0F483E0689FB0011124A091EE04B09196
:1002D000EF04A60FB71F80818C93A091EE04B0911C
:1002E000EF04A60FB71F818111968C932091EE0425
:1002F0003091EF04620F731F8281FB0182830895A6
:100300009091CC04891780F490E0880F991FE091B8
:10031000CD04F091CE04E80FF91F908190786F77AB
:10032000962B908380E0089581E008950F931F93AA
:10033000CF938C01C0E08091CC04C81748F4F80139
:10034000EC0FF11D60818C2F0E948001CF5FF3CFF5
:1003500080E0CF911F910F91089586E480937C00F7
:1003600080917A00806480937A0080917A0086FD83
:10037000FCCF80917800909179000895CF92DF9220
:10038000EF92FF920F931F93CF93DF937C016A014B
:1003900010E000E00C151D0581F0EB01D701ED9197
:1003A000FC910190F081E02D6991C7010995892B9D
:1003B00021F00F5F1F4FBE01EDCFC801DF91CF913C
:1003C0001F910F91FF90EF90DF90CF900895FC0167
:1003D000538D448D252F30E0842F90E0821B930BAA
:1003E000541710F0CF96089501970895FC01918D50
:1003F000828D981761F0A28DAE0FBF2FB11D5D9653
:100400008C91928D9F5F9F73928F90E008958FEFF4
:100410009FEF0895FC01918D828D981731F0828DA8
:10042000E80FF11D858D90E008958FEF9FEF0895FF
:10043000FC01918D228D892F90E0805C9F4F821B63
:1004400091098F739927089588EE93E00E9418020E
:1004500021E0892B09F420E0822F0895FC01A48D6E
:10046000A80FB92FB11DA35ABF4F2C91848D90E0D6
:1004700001968F739927848FA689B7892C93A089B9
:10048000B1898C9180648C93938D848D981306C070
:100490000288F389E02D80818F7D80830895EF921B
:1004A000FF920F931F93CF93DF93EC01F62E81E021
:1004B000888F9B8D8C8D981316C0E889F98980816F
:1004C00085FF11C0EE89FF896083E889F989808101
:1004D0008064808381E090E0DF91CF911F910F9144
:1004E000FF90EF9008950B8D10E00F5F1F4F0F737B
:1004F0001127E02E8C8D8E110CC00FB607FCFACFA1
:10050000E889F989808185FFF5CFCE010E942E020E
:10051000F1CFEB8DEC0FFD2FF11DE35AFF4FF08271
:100520000B8FEA89FB8980818062D3CFCF93DF93E1
:10053000EC01888D8823B9F0AA89BB89E889F989FB
:100540008C9185FD03C0808186FD0DC00FB607FC30
:10055000F7CF8C9185FFF2CF808185FFEDCFCE0163
:100560000E942E02E9CFDF91CF91089580E090E0C4
:10057000892B29F00E94240281110C940000089517
:1005800090E0FC01EC5FFD4F2491FC01E051FE4F37
:100590003491FC01E452FE4FE491EE23C9F0222392
:1005A00039F0233001F1A8F4213019F1223029F17A
:1005B000F0E0EE0FFF1FEE52FE4FA591B4918FB702
:1005C000F894EC91611126C030953E233C938FBF87
:1005D00008952730A9F02830C9F0243049F78091D8
:1005E00080008F7D03C0809180008F778093800092
:1005F000DFCF84B58F7784BDDBCF84B58F7DFBCF14
:100600008091B0008F778093B000D2CF8091B000FE
:100610008F7DF9CF3E2BDACFCF93DF9390E0FC01B3
:10062000E051FE4F249184529E4FFC018491882317
:10063000D1F090E0880F991FFC01E853FE4FA5917F
:10064000B491FC01EE52FE4FC591D49161110EC0E0
:100650009FB7F8948C91E22FE0958E238C9328819C
:10066000E223E8839FBFDF91CF9108958FB7F8947D
:10067000EC91E22BEC938FBFF6CF3FB7F8948091CB
:10068000630190916401A0916501B091660126B566
:10069000A89B05C02F3F19F00196A11DB11D3FBFBA
:1006A000BA2FA92F982F8827BC01CD01620F711D89
:1006B000811D911D42E0660F771F881F991F4A9583
:1006C000D1F708958F929F92AF92BF92CF92DF920F
:1006D000EF92FF924B015C010E943D036B017C0194
:1006E0000E943D036C197D098E099F09683E734085
:1006F00081059105A8F321E0821A9108A108B108AB
:1007000088EEC80E83E0D81EE11CF11C8114910410
:10071000A104B10429F7FF90EF90DF90CF90BF9034
:10072000AF909F908F900895FB01DC0140FF05C0C2
:1007300002C001900D9201900D924250D0F75040AE
:10074000C0F70895FC019091BC009F70906D90934C
:10075000BC0094E68091BC0084FF0CC09150D1F79E
:100760009091BC009B7F9093BC009091BC009460E2
:100770009093BC0010820895FC018389B0E0A0E052
:10078000882341F08189A489B5899BE0899FA00DC8
:10079000B11D11248C91811125C081E0808390E0EE
:1007A00012962D913C9113973787268711968C913D
:1007B0001197880F892B858314968D919D910D90AB
:1007C000BC91A02D82879387A487B5871682178254
:1007D0001086118611828091BC008F70806A809390
:1007E000BC00089582E0808391E0DACF1F93CF931D
:1007F000DF93C82F8093F404D1E0182F1D27612FB9
:1008000087E00E94C0026C2F86E00E94C002C09365
:10081000F304612F85E00E94C002C13099F4109268
:10082000F5048CB58F7B8CBD8CB58F778CBD61E06A
:100830008AE00E940C0361E086E0DF91CF911F9176
:100840000C940C03D093F50460E08AE00E940C0342
:1008500060E08AE00E94C00261E08CE00E940C032C
:1008600060E08BE00E940C0360E08DE00E940C03CE
:100870008CB580648CBD8CB580688CBDDF91CF91C8
:100880001F9108959F92AF92BF92CF92DF92EF9205
:10089000FF920F931F93CF93DF93EC017B016A01CB
:1008A0008B892889821798F080EA96E8A1E0B0E069
:1008B0003B89321760F00197A109B109C9F7CE0150
:1008C0000E94A203CE010E94BC0381E07DC0D7013B
:1008D0008C9181114CC000E0C114D10411F0F601DB
:1008E0000481F70184819581A681B781800F911DD4
:1008F000A11DB11D8597A105B10508F071C09FB676
:10090000F89410E084819581800F911F0E949213CA
:100910005C019FBE84E0A114B10409F455C0F70145
:100920004481558162817381C501800F911F0E94AE
:1009300094030C0D1D1D95010C151D0599F0D80192
:100940008E918D01F90181939F01F7018481958139
:10095000A681B7810196A11DB11D84839583A683CD
:10096000B783EACFD7011396BC92AE9212971FB706
:10097000F8940B898C899D890097F9F03B89288927
:100980003217D8F42A894BE050E0B701BBE02B9F27
:10099000800D911D11240E9494038B898F5F8B8B96
:1009A0008A89282F30E02F5F3F4F98898F5F9217F9
:1009B000130609F00CF480E08A8B011103C0CE010C
:1009C0000E94BC031FBF8981DF91CF911F910F91BE
:1009D000FF90EF90DF90CF90BF90AF909F900895E1
:1009E00083E0F2CF2F923F924F925F926F927F926D
:1009F0008F929F92AF92BF92CF92DF92EF92FF922F
:100A00000F931F93CF93DF93CDB7DEB7A0970FB6A9
:100A1000F894DEBF0FBECDBF3C01962E5A8B498B9A
:100A20000B8B1C8B2D8B3E8BDC0115968C918111D1
:100A300085C1FA018181882309F47EC114E2181B63
:100A40000FB607FC18C0F1E06F1393C0812F90E040
:100A5000B0E0A0E08A159B05AC05BD0508F46EC1A9
:100A600091E0D3015B962C915B9758968C91821BF9
:100A7000891708F463C181E0F3018583A989BA89E4
:100A800012969C918481891721F18091B9008E7F03
:100A90008093B9008091B9008D7F8093B90020E9DF
:100AA00031E0911102C024E630E050E040E060E81F
:100AB0007EE380E090E00E94531320513109359588
:100AC00027952093B800E989FA898281D301149689
:100AD0008C939110B2C04301B8E08B0E911CF301CE
:100AE00080819181A281B3812B893C894D895E8966
:100AF000281739074A075B0709F44CC0A989BA8946
:100B00008C9119828A831C821B821D821E821F8205
:100B1000188619861B861A8611968C912C873D871C
:100B20004E875F87888BAE01445F5F4FBE016F5F6A
:100B30007F4FC4010E944204882361F1F3011582B2
:100B4000A0960FB6F894DEBF0FBECDBFDF91CF9158
:100B50001F910F91FF90EF90DF90CF90BF90AF90DB
:100B60009F908F907F906F905F904F903F902F90CD
:100B70000895F30180819181A281B3812B893C8901
:100B80004D895E89281739074A075B0709F468CF42
:100B900092E067CF1092E703A989BA898C9191E01E
:100BA00099838A83FC82EB82AD82BE82CF82D88613
:100BB000198688E391E09B878A8750E040E0BE0178
:100BC0006F5F7F4FC4010E9442048111B7CF2FB7DE
:100BD000F8948091E2039091E303A091E403B09133
:100BE000E5032FBFF30126813781820F931FA11DDB
:100BF000B11D2091E703211117C0F3012681378130
:100C0000232BB9F32FB7F8944091E2035091E303FB
:100C10006091E4037091E5032FBF84179507A60741
:100C2000B70738F782E005C08091E603882309F40E
:100C30007EC0D30115961C9283CF212C312C21012B
:100C4000212F30E050E040E02B8F3C8F4D8F5E8FA6
:100C5000A301485F5F4F58A34F8F8E01045F1F4F62
:100C60002A143B044C045D0408F061C0A989BA89C8
:100C700011968C914B895C896D897E89420D531D3B
:100C8000641D751D4C875D876E877F87888BA601E5
:100C9000950122193309440955092F8B388F498F43
:100CA0005A8F8B8D9C8DAD8DBE8D82179307A407B7
:100CB000B50720F48F8B988FA98FBA8FA989BA892D
:100CC0008C9119828A83C701820D931D9C838B832B
:100CD0002F89388D498D5A8D2D833E834F835887B8
:100CE00089861B861A86F30180819181A281B38156
:100CF0002B893C894D895E89281739074A075B078C
:100D0000A1F440E050E0BE016F5F7F4F8F8D98A14E
:100D10000E94420481118DCF2F89388D498D5A8DC3
:100D2000220E331E441E551E9BCFA801ECCFD301CB
:100D300015961C9280E004CF84E002CF81E000CFC2
:100D40008F92AF92BF92CF92DF92EF92FF920F936A
:100D50001F93A42EB12CD12CC12C082F10E030E011
:100D600020E0812C7B0145ED54E061E08091BC04E2
:100D70009091BD040E94F2041F910F91FF90EF909B
:100D8000DF90CF90BF90AF908F900895E9EDF4E0A1
:100D900082E1DF011D928A95E9F7EBEEF4E083E052
:100DA000DF011D928A95E9F71092D80408951F93E8
:100DB000CF93DF93CDB7DEB763970FB6F894DEBF5E
:100DC0000FBECDBF6091EE047091EF048FEF6115FF
:100DD000710509F437C042E150E0CE0101960E944E
:100DE0009403DE01119630E013E0832F612F0E94FF
:100DF0002513E92FF0E0EB52FB4F638DFD012081BD
:100E00001196269F020E20E0211D20833F5F323184
:100E100061F7112482E1FE013196A9EDB4E0019061
:100E20000D928A95E1F742E169ED74E081E00E945C
:100E3000A00685E58B8B41E0BE016D5E7F4F86E1AC
:100E40000E94A00663960FB6F894DEBF0FBECDBF1A
:100E5000DF91CF911F910895CF93DF9300D00F9230
:100E6000CDB7DEB790915C01992341F080910001EC
:100E70000F900F900F90DF91CF91089591E0909394
:100E80005C0110925E01882339F180919B02980FDA
:100E900090939B02833000F51092CE031092CD0305
:100EA00010929902109298021092CF0310929A0217
:100EB00083E08093000180915E018823E1F310922A
:100EC0005E0180915E018823E1F310925C0181E074
:100ED0008093000183E0CCCF84E08093670110927F
:100EE000000181E498E7ADE7B1E020915E012111B6
:100EF00004C00197A109B109C1F710925C018FEFFD
:100F000089831A821B82CE0101960E943E010E94B3
:100F1000D70681E00E94F603FFCF2F923F924F92B7
:100F20005F926F927F928F929F92AF92BF92CF9279
:100F3000DF92EF92FF920F931F93CF93DF93CDB782
:100F4000DEB7CA53D1400FB6F894DEBF0FBECDBF97
:100F5000C75CDE4F6883C953D140C65CDE4F7883DF
:100F6000CA53D1401A01912C7A0110E000E0C35D10
:100F7000DE4FE882F9820A831B83CD52D1402C01D7
:100F8000712C612C8FEF9FEFA0E0B0E09C01AD01D0
:100F90002E193F09400B510BCF5CDE4F288339835C
:100FA0004A835B83C153D140E40CF51C061D171D19
:100FB000CB5CDE4FE882F9820A831B83C553D140A4
:100FC00061E070E080E090E00E946203CF5CDE4F61
:100FD00088819981AA81BB81C153D14048165906A5
:100FE0006A067B0608F077C08091C1049091C20424
:100FF000A091C304B091C404CB5CDE4FE880F980BB
:101000000A811B81C553D140E816F9060A071B0760
:1010100008F061C0812CC35DDE4FA880B980CA8012
:10102000DB80CD52D1408E010F5F1F4F78019301BD
:10103000820149EC54E060E08091BC049091BD04D1
:101040000E94F204182F813049F59A949110B8CF7C
:101050008BE291E00E94960160E3610F85E00E94BF
:10106000800181E00E942C07C65CDE4F0FB6F89429
:10107000DEBF0FBECDBFDF91CF911F910F91FF90CB
:10108000EF90DF90CF90BF90AF909F908F907F9028
:101090006F905F904F903F902F9008958111D8CF1F
:1010A000DE011196C75CDE4FE881C953D140C65CB2
:1010B000DE4FF881CA53D140CF01820D931D8E17A8
:1010C0009F0759F03D9121913217C9F382E391E0D6
:1010D0000E949601C6CF1FEFBBCF81E0C5CF2F92F4
:1010E0003F924F925F926F927F928F92AF92BF9298
:1010F000CF92DF92EF92FF920F931F93CF93DF93E4
:10110000CDB7DEB765970FB6F894DEBF0FBECDBF83
:101110001C011D8A7B0110E000E0E982FA820B834A
:101120001C838FEF9FEFA0E0B0E09C01AD012E1972
:101130003F09400B510B298B3A8B4B8B5C8B61E049
:1011400070E080E090E00E94620380919E029091A6
:101150009F027C0110E000E0E986FA860B871C877D
:1011600029893A894B895C89E216F3060407150739
:10117000F0F089E391E00E94960181E065960FB658
:10118000F894DEBF0FBECDBFDF91CF911F910F91BD
:10119000FF90EF90DF90CF90BF90AF908F907F90B7
:1011A0006F905F904F903F902F900C942C07409140
:1011B000C1045091C2046091C3047091C404898138
:1011C0009A81AB81BC81E984FA840B851C858E0DE4
:1011D0009F1DA01FB11F84179507A607B70748F6E4
:1011E00049805A806B807C804114510461047104F1
:1011F00009F467C0C980DA80EB80FC80C418D50888
:10120000E608F7080091BF041091C00429853A85CB
:101210004B855C852C0D3D1D4E1D5F1D2D833E8332
:101220004F835887980150E040E06D817E818F8127
:1012300098850E943113061B170BC801B0E0A0E08F
:10124000481659066A067B0608F48201C801B0E018
:10125000A0E08D879E87AF87B88B7101EC0CFD1CD9
:1012600025E0822E58016D010D811E812F81388568
:1012700049EC54E061E08091BC049091BD040E946F
:10128000F204182F811109C0AD84BE84CF84D888A0
:101290004A185B086C087D08A7CF813079F49D89D6
:1012A00091509D8B91114BCF80E491E00E9496016B
:1012B00060E3610F85E00E9480015FCF8F3FA1F75F
:1012C00058CF81E065960FB6F894DEBF0FBECDBF54
:1012D000DF91CF911F910F91FF90EF90DF90CF9012
:1012E000BF90AF908F907F906F905F904F903F90A6
:1012F0002F9008958F929F92AF92BF92CF92DF92DC
:10130000EF92FF920F931F93CF93DF93CDB7DEB78A
:10131000CDB6DEB60091CC0410E02DB73EB7201B51
:10132000310B0FB6F8943EBF0FBE2DBFEDB7FEB721
:1013300031967F010E0F1F1F2AE0822E912CA12CC7
:10134000B12C0E151F0559F0A50194010E9431130F
:10135000605DF80162938F01B901CA01F2CFC80143
:101360000E9496010FB6F894DEBE0FBECDBEDF918F
:10137000CF911F910F91FF90EF90DF90CF90BF9092
:10138000AF909F908F90089520915F01211117C019
:101390008D3F71F08F3F39F08C3F89F480919C0232
:1013A00090919D020AC081E080935F0180E00895E2
:1013B00081E080935E01809100018F5F089590919C
:1013C0006701913009F4B7C0992341F0923009F4D4
:1013D00050C0933009F47DC07894B2C090915E0102
:1013E000911125C080916801909169010297E8F5FB
:1013F0008FEF9FEF909369018093680178946091DB
:1014000068017091690190E080E00E947A096CE4C3
:1014100080E00E94800164E481E00E94800160E23B
:1014200082E00E94800181E00E942C07BFCF2091C2
:101430005D0141E0420F40935D0160916801709150
:10144000690190E058E0259F9001112402C0880FA7
:10145000991F2A95E2F7862B972B90936901809329
:101460006801423008F0BECFA1CF82E080936701CF
:101470009DCF30910001313009F098CF8E3F99F423
:10148000211111C010929902109298023093CF034B
:1014900083E08093670180919A02882309F486CFC4
:1014A0009093000183CF2091CD033091CE032C3255
:1014B00091E03907D0F5A9014F5F5F4F5093CE03FC
:1014C0004093CD0320563D4FF901808310925F0178
:1014D0006DCF90910001913009F068CF8E3F99F463
:1014E000211111C01092CE031092CD0390939A0255
:1014F00082E0809367019091CF03992309F456CF3E
:101500008093000153CF20919802309199022C32A0
:10151000F1E03F0750F4A9014F5F5F4F50939902EC
:101520004093980225593E4FCFCF789487E491E0BD
:101530000E94960178CF78948EE491E00E94960103
:1015400080E072CF88EE93E00E941802892B79F038
:1015500088EE93E00E94F6010E94C409882391F36B
:101560006FEF680F88EE93E00E944F02EBCF089573
:101570006230710578F19B0121503109DC01680F5F
:10158000791F61507109E0E04D91E427F0E0E859DE
:10159000FF4FE4916A177B07B9F7820F931FDC01B5
:1015A0008C918E17E1F060919C0270919D0290E009
:1015B00080E00E947A0963E480E00E94800162E595
:1015C00081E00E94800163E482E00E94800181E06A
:1015D0000C942C0785E591E00E949601F8CF81E0FC
:1015E00008950F931F93CF93DF93EC018B8910E045
:1015F00000E0882341F089890C891D899BE0899F3F
:10160000000D111D1124D8018C91811107C0129673
:101610008D919C91009711F00E942B14D80119967E
:10162000ED91FC91309711F089810995F8012085A1
:10163000222369F0898181110AC030E050E040E046
:101640000FB607FE21C0CA01B9010E9462038B894F
:10165000882381F08B8981508B8B8989282F30E0FA
:101660002F5F3F4F98898F5F9217130609F00CF494
:1016700080E0898B8B89882391F0CE01DF91CF9117
:101680001F910F910C94BC03A0EABFE00E9481134C
:101690006150710981099109D1F20000F9CFDF9100
:1016A000CF911F910F9108951F920F920FB60F9235
:1016B00011242F933F934F935F936F937F938F9357
:1016C0009F93AF93BF93EF93FF9388EE93E00E94B5
:1016D0002E02FF91EF91BF91AF919F918F917F91DA
:1016E0006F915F914F913F912F910F900FBE0F908F
:1016F0001F9018951F920F920FB60F9211242F93DF
:101700003F934F935F936F937F938F939F93AF9389
:10171000BF93EF93FF93E091F803F091F903808179
:10172000E091FE03F091FF0382FD29C0908180913A
:1017300001048F5F8F7320910204821741F0E091C2
:101740000104F0E0E851FC4F958F80930104E09193
:101750008504F0918604309709F00995FF91EF9187
:10176000BF91AF919F918F917F916F915F914F91B9
:101770003F912F910F900FBE0F901F901895808171
:10178000EDCF1F921FB61F9211242F933F938F937B
:101790009F93AF93BF938091E2039091E303A09155
:1017A000E403B091E5033091620123E0230F2D376C
:1017B00050F50196A11DB11D209362018093E203B3
:1017C0009093E303A093E403B093E5038091630156
:1017D00090916401A0916501B09166010196A11DEF
:1017E000B11D8093630190936401A0936501B09350
:1017F0006601BF91AF919F918F913F912F911F9063
:101800001FBE1F90189526E8230F0296A11DB11D3B
:10181000D3CF1F920F920FB60F9211242F933F93A5
:101820004F935F936F937F938F939F93AF93BF93E8
:10183000CF93DF93EF93FF93C0919404D0919504DD
:101840008091B900887F883209F44BC040F580311F
:10185000F1F1C0F4882309F4AEC08830C1F1FF91E2
:10186000EF91DF91CF91BF91AF919F918F917F9138
:101870006F915F914F913F912F910F900FBE0F90FD
:101880001F901895883169F1803249F78091B9002D
:10189000887F803309F446C086E089835AC080344B
:1018A00009F473C060F4803389F38833C1F6809102
:1018B000BC008F7080688093BC001882D0CF8035C8
:1018C00009F44EC0883581F1883449F6DFCF8D8127
:1018D0008093BB008091BC008F70806C8093BC00B3
:1018E000BECF4E815F81688579858A859B85AC8571
:1018F000BD85481759076A077B0758F5EE85FF85B0
:101900008E819F81A885B985AC01BD014F5F5F4F76
:101910006F4F7F4F4E835F8368877987E80FF91F8A
:101920008081D6CF87E0B9CF2091BB00EE85FF85BF
:101930008E819F81A885B985AC01BD014F5F5F4F46
:101940006F4F7F4F4E835F8368877987E80FF91F5A
:101950002083CE010E94A203CE010E94F10A7FCF14
:101960002091BB00EE85FF858E819F81A885B9857A
:10197000AC01BD014F5F5F4F6F4F7F4F4E835F8361
:1019800068877987E80FF91F20834E815F8168851A
:1019900079858A859B85AC85BD850197A109B109AB
:1019A000481759076A077B0708F494CF8091BC0059
:1019B0008F70806893CF88E070CF0F920FB60F9230
:1019C0001F9211242F933F934F938F939F93EF93E5
:1019D000FF938091F404882309F477C05F9A809183
:1019E00061018F5F80936101863050F080916001CA
:1019F0008F5F8C3008F075C0809360011092610198
:101A0000809161019091CC04E0E0891758F4282F6F
:101A100030E0220F331FE091CD04F091CE04E20FAD
:101A2000F31FE181F0E0EE0FFF1FE95FFE4F4091F1
:101A300060012081318102C0369527954A95E2F7F1
:101A4000E0E020FF1CC0891708F04EC090E0880F2E
:101A5000991F2091CD043091CE04820F931FFC0179
:101A60008081E82FEF77881F8827881FE052FF0BBF
:101A7000E859FE4F9491E82FEE0FEE0FE92B2998CD
:101A800085E02A98EE2399F19091610198132FC077
:101A9000289A00002A9A0000815098F787E090E089
:101AA000F0E02A989F01082E02C0359527950A94E8
:101AB000E2F720FF1EC0289A00002A9A0000019732
:101AC00080F700000000299A5F98FF91EF919F91A5
:101AD0008F914F913F912F911F900F900FBE0F90BC
:101AE0001895109260018ACFE0E080E0BFCF28987F
:101AF000D0CF2898E1CF1F920F920FB60F921124EA
:101B00002F933F934F935F936F937F938F939F9305
:101B1000AF93BF93EF93FF938EB50E94C4098823C0
:101B200011F081508EBDFF91EF91BF91AF919F91C8
:101B30008F917F916F915F914F913F912F910F9076
:101B40000FBE0F901F9018951092EB031092EA03AE
:101B500088EE93E0A0E0B0E08093EC039093ED0377
:101B6000A093EE03B093EF038DE191E09093E9032E
:101B70008093E80385EC90E09093F5038093F40361
:101B800084EC90E09093F7038093F60380EC90E070
:101B90009093F9038093F80381EC90E09093FB031A
:101BA0008093FA0382EC90E09093FD038093FC0312
:101BB00086EC90E09093FF038093FE031092010463
:101BC00010920204109203041092040410928604EE
:101BD000109285048FEF80938704109289041092ED
:101BE000880410929304109292048FEF9FEFDC010F
:101BF00080938E0490938F04A0939004B0939104EB
:101C00002091B40421116AC08093960490939704A4
:101C1000A0939804B093990421E020939A04109221
:101C20009B0484E690E090939D0480939C04109222
:101C30009E0410929F042093A0049093A20480938A
:101C4000A1048CE290E00E949213FC019C01245DAF
:101C50003F4F1482158216821782108612861186D3
:101C60003B962E173F07A9F79093B3048093B204D5
:101C700084E08093AE041092B1041092AF041092ED
:101C8000B00461E082E10E94C00261E083E10E9451
:101C9000C0028091B9008E7F8093B9008091B90015
:101CA0008D7F8093B9008CE08093B8008091BC0058
:101CB00084608093BC008091BC0081608093BC00F4
:101CC0008091BC0080648093BC008EE994E0909386
:101CD00095048093940481E08093B40486E994E0B1
:101CE0009093BD048093BC041092F3041092F4040A
:101CF00081E08093F5041092D5041092D60480936D
:101D0000D7040E94C6061092EF041092EE048FEFE3
:101D10008093F00480E68093F1048093F2041092A3
:101D2000CC041092D0041092CF041092D2041092DE
:101D3000D1041092D4041092D3048CE090E00E945D
:101D40009213FC019C01245F3F4F10821182329656
:101D5000E217F307D1F79093CE048093CD04892B3B
:101D600019F086E08093CC0487E58093BE0480E47C
:101D700090E09093C0048093BF0480E090E8A0E0DE
:101D8000B0E08093C1049093C204A093C304B093C5
:101D9000C4041092C9041092CA0481E08093CB0459
:101DA00082E090E0A0E0B0E08093C5049093C60488
:101DB000A093C704B093C804089500D00F92CDB784
:101DC000DEB7789484B5826084BD84B5816084BDBB
:101DD00085B5826085BD85B5816085BD80916E00C9
:101DE000816080936E0010928100809181008260FA
:101DF0008093810080918100816080938100809137
:101E000080008160809380008091B1008460809325
:101E1000B1008091B00081608093B00080917A0021
:101E2000846080937A0080917A00826080937A0047
:101E300080917A00816080937A0080917A00806836
:101E400080937A001092C10061E08AE00E940C0346
:101E500061E088E00E940C0361E089E00E940C03CD
:101E600061E087E00E940C0361E085E00E940C03C2
:101E700061E086E00E940C0361E08EE00E940C03AA
:101E800061E08FE00E940C031092B0001092B1004C
:101E90001092B2008FEF8093B3008091B000826007
:101EA0008093B0008091B10085608093B1008091F3
:101EB0007000826080937000E091F803F091F90364
:101EC00082E08083E091F403F091F5031082E091C9
:101ED000F603F091F70380E1808310920004E09113
:101EE000FC03F091FD0386E08083E091FA03F0911A
:101EF000FB03808180618083E091FA03F091FB0312
:101F0000808188608083E091FA03F091FB038081F7
:101F100080688083E091FA03F091FB0380818F7DDC
:101F2000808382EA9AE0909386048093850411E08E
:101F300084E58093D5041093D6041093D7040E94AF
:101F4000C60685E5898341E0BE016F5F7F4F87E16B
:101F50000E94A0061093D804198341E0BE016F5F70
:101F60007F4F80E00E94A00643E050E06FE370E006
:101F70008BEE94E00E94BC1443E06BEE74E083E1CE
:101F80000E94A00680ED93E09093EF048093EE040E
:101F90002091CC04E091CD04F091CE0480E098E053
:101FA000281721F091838F5F3296FACF64E670E0B4
:101FB00080E090E00E94620380E00E94F60360E00F
:101FC00085E00E94C0026AEF70E080E090E00E942D
:101FD00062031AE00E94AD011150E1F714E6C12C32
:101FE000D12C76010E94AD01092E000CAA0BBB0B6F
:101FF000C80ED91EEA1EFB1E1150A1F7C701B6017B
:102000000E94061220E030E048EC52E40E94651184
:102010002CE135E348E15EE30E94B8126B017C01DC
:102020001092F30461E085E00E94C00220E030E0FD
:102030004CE552E4C701B6010E94601187FF1AC047
:1020400020E030E048EC52E4C701B6010E94B8122B
:102050000E94D7110E947A098091CC04843038F014
:10206000E091CD04F091CE0486818068868380E083
:102070000E942C078091C5049091BE0497FD04C076
:102080002FEF280F243010F080E090E09093C904E7
:102090008093CA0481E08093CB0480E889831A820C
:1020A0008B83CE0101960E943E010E94D70690E8E4
:1020B000F92E8091CF03882309F443C06091CD03AA
:1020C0007091CE0380EA92E00E94B80A8130C9F58F
:1020D0006091CD037091CE036150710980EA92E066
:1020E0000E946F08813069F500919E0210919F0255
:1020F0004091CD035091CE034150510960EA72E006
:10210000C8010E948D078130E1F42091CD03309108
:10211000CE03020F131F0150110910939F02009369
:102120009E0220919C0230919D022F5F3F4F309381
:102130009D0220939C0210929B021092CF038093E9
:10214000000180919A02882309F443C060919802AB
:10215000709199028BE691E00E94B80A8130C9F52E
:102160006091980270919902615071098BE691E03B
:102170000E946F08813069F500919E0210919F02C4
:102180004091980250919902415051096BE671E0DB
:10219000C8010E948D078130E1F4209198023091AE
:1021A0009902020F131F0150110910939F0200930F
:1021B0009E0220919C0230919D022F5F3F4F3093F1
:1021C0009D0220939C0210929B0210929A0280938F
:1021D000000180919C0290919D0220916A01281734
:1021E000190621F120919C0230919D0240916801D5
:1021F000509169011982FA821B82A0E0B6E00E9428
:1022000072139A0150E040E00E9431139927852F04
:10221000742F632FCE0101960E945E010E94D706A3
:1022200080919C0290919D0280936A0120919C0272
:1022300030919D02809168019091690128173907BA
:1022400009F037CF8091680190916901892B09F4D9
:1022500030CF81E08093670184E0809300016AEFD2
:1022600070E080E090E00E94620381E00E94F6034B
:10227000198280E88A831B82CE0101960E943E016A
:102280000E94D70660919C0270919D0290E080E0D0
:102290000E947A0963E580E00E94800165E481E0A4
:1022A0000E94800163E482E00E948001FFCF809160
:1022B000CD049091CE04009711F00C942B14089546
:1022C0000E94431208F481E008950E9479110C9451
:1022D0007E120E94771258F00E94701240F029F48A
:1022E0005F3F29F00C94671251110C94B2120C94B8
:1022F0006D120E948F1268F39923B1F3552391F365
:10230000951B550BBB27AA2762177307840738F064
:102310009F5F5F4F220F331F441FAA1FA9F335D0C1
:102320000E2E3AF0E0E832D091505040E695001C75
:10233000CAF72BD0FE2F29D0660F771F881FBB1F2F
:10234000261737074807AB07B0E809F0BB0B802D0D
:10235000BF01FF2793585F4F3AF09E3F510578F039
:102360000C9467120C94B2125F3FE4F3983ED4F3DE
:10237000869577956795B795F7959F5FC9F7880F0D
:10238000911D9695879597F90895E1E0660F771F5F
:10239000881FBB1F621773078407BA0720F0621BF0
:1023A000730B840BBA0BEE1F88F7E09508950E941B
:1023B000971288F09F5798F0B92F9927B751B0F02E
:1023C000E1F0660F771F881F991F1AF0BA95C9F7B9
:1023D00014C0B13091F00E94B112B1E008950C9494
:1023E000B112672F782F8827B85F39F0B93FCCF347
:1023F000869577956795B395D9F73EF49095809536
:10240000709561957F4F8F4F9F4F0895E89409C055
:1024100097FB3EF490958095709561957F4F8F4F17
:102420009F4F9923A9F0F92F96E9BB279395F6952D
:10243000879577956795B795F111F8CFFAF4BB0FAB
:1024400011F460FF1BC06F5F7F4F8F4F9F4F16C00F
:10245000882311F096E911C0772321F09EE8872F99
:10246000762F05C0662371F096E8862F70E060E055
:102470002AF09A95660F771F881FDAF7880F9695CE
:10248000879597F90895990F0008550FAA0BE0E872
:10249000FEEF16161706E807F907C0F01216130626
:1024A000E407F50798F0621B730B840B950B39F466
:1024B0000A2661F0232B242B252B21F408950A26CC
:1024C00009F4A140A6958FEF811D811D089597F90C
:1024D0009F6780E870E060E008959FEF80EC0895CA
:1024E00000240A94161617061806090608950024F3
:1024F0000A9412161306140605060895092E03946D
:10250000000C11F4882352F0BB0F40F4BF2B11F4E0
:1025100060FF04C06F5F7F4F8F4F9F4F089557FD3F
:102520009058440F551F59F05F3F71F04795880F41
:1025300097FB991F61F09F3F79F0879508951216D8
:1025400013061406551FF2CF4695F1DF08C0161684
:1025500017061806991FF1CF869571056105089435
:102560000895E894BB2766277727CB0197F908954C
:102570000E94CB120C947E120E94701238F00E94BE
:10258000771220F0952311F00C9467120C946D12C1
:1025900011240C94B2120E948F1270F3959FC1F314
:1025A000950F50E0551F629FF001729FBB27F00D01
:1025B000B11D639FAA27F00DB11DAA1F649F662756
:1025C000B00DA11D661F829F2227B00DA11D621FA5
:1025D000739FB00DA11D621F839FA00D611D221F5F
:1025E000749F3327A00D611D231F849F600D211D43
:1025F000822F762F6A2F11249F5750409AF0F1F0C6
:1026000088234AF0EE0FFF1FBB1F661F771F881F2E
:1026100091505040A9F79E3F510580F00C946712ED
:102620000C94B2125F3FE4F3983ED4F3869577950D
:102630006795B795F795E7959F5FC1F7FE2B880FD4
:10264000911D9695879597F90895991B79E004C097
:10265000991F961708F0961B881F7A95C9F78095E1
:102660000895A1E21A2EAA1BBB1BFD010DC0AA1FD3
:10267000BB1FEE1FFF1FA217B307E407F50720F0EB
:10268000A21BB30BE40BF50B661F771F881F991F66
:102690001A9469F760957095809590959B01AC01AF
:1026A000BD01CF010895052E97FB1EF400940E94F2
:1026B0006A1357FD07D00E94311307FC03D04EF474
:1026C0000C946A1350954095309521953F4F4F4F8C
:1026D0005F4F089590958095709561957F4F8F4FCE
:1026E0009F4F0895A29FB001B39FC001A39F700D9B
:1026F000811D1124911DB29F700D811D1124911D0A
:1027000008950E947213A59F900DB49F900DA49FF1
:10271000800D911D11240895EE0FFF1F0590F49177
:10272000E02D09940F931F93CF93DF93823091058F
:1027300010F482E090E0E091F804F091F90430E0C8
:1027400020E0B0E0A0E0309799F42115310509F4BC
:1027500047C0281B390B24303105C0F58A819B8185
:102760006115710571F1FB0193838283FE0111C034
:10277000408151810281138148175907F8F04817A9
:10278000590799F4109761F012960C9312971396CB
:102790001C933296CF01DF91CF911F910F91089535
:1027A0000093F8041093F904F4CF2115310519F0C2
:1027B0004217530718F49A01BD01EF01DF01F80138
:1027C000C2CF9093F9048093F804D0CFFE01E20FBA
:1027D000F31F819391932250310939832883DACFF3
:1027E0002091F6043091F704232B41F4209103014A
:1027F000309104013093F7042093F60420910101F5
:10280000309102012115310541F42DB73EB74091B9
:10281000050150910601241B350BE091F604F0915F
:10282000F704E217F307A0F42E1B3F0B2817390714
:1028300078F0AC014E5F5F4F2417350748F04E0F1C
:102840005F1F5093F7044093F60481939193A2CFB6
:10285000F0E0E0E09FCFCF93DF930097E9F0FC0139
:10286000329713821282C091F804D091F904DE01EC
:1028700030E020E02097A1F420813181820F931F66
:102880002091F6043091F7042817390709F067C042
:10289000F093F704E093F604DF91CF910895DA0105
:1028A000AE17BF0708F040C012964D915C91139788
:1028B0009D014115510599F7D9011396FC93EE93AB
:1028C00012974D915D91A40FB51FEA17FB0779F49C
:1028D000808191810296840F951FD90111969C9356
:1028E0008E938281938113969C938E931297B0E07E
:1028F000A0E08A819B810097B9F5FE0181919191B9
:10290000E80FF91F8091F6049091F7048E179F0746
:1029100019F6109761F51092F9041092F804D0930B
:10292000F704C093F604B8CFB383A28340815181EA
:10293000840F951FA817B90771F44E5F5F4F8D91F3
:102940009C911197480F591F5183408312968D9186
:102950009C91938382832115310509F0ADCFF093CB
:10296000F904E093F80498CFDE01EC01C2CF13968E
:102970001C921E921297D3CFDC0101C06D9341507F
:102980005040E0F7089511E0CDE0D1E004C0FE0131
:102990000E948C132196CE30D107C9F7F894FFCF4F
:1029A000010000FA042000FF0F010041001101495D
:1029B000025505AD057707FF0F000000004F02BE6E
:1029C00001E70196021802F6010A0252454144202D
:1029D0002000417564697420002D2D46554C4C0033
:1029E00053454E44202000425546204F4600486142
:0C29F0006C746564002D2D4E554C4C009D
:00000001FF
