:100000000C9409010C9402090C94DB080C94310146
:100010000C9431010C9431010C9431010C946B0A55
:100020000C9431010C9431010C9431010C94FD09B4
:100030000C9431010C9431010C9431010C94310178
:100040000C9493080C9431010C9431010C943101FF
:100050000C9431010C9431010C9431010C94310158
:100060000C9429090C94310100246051DA35CA201E
:100070004122F0320C100431EB22B9BA72DADBA261
:10008000FBFA888A39185AB5BBF35BC93BD9D1FA58
:1000900073222B7349E3E3EBF1F2C1DA596B6B6B1B
:1000A000737AB9C952AAE00840BB5B193BF9D1FA8F
:1000B00053022B734913131BF1F211DA590B0B0B7B
:1000C000737AB901410280FF0200030004000600B8
:1000D000080009000C001000120018002400300075
:1000E000010001004100450049004E005200570048
:1000F0005C00620068006E0075007B0083008B006E
:1001000093009C00A500AF00B900C400D000DC0043
:10011000E900F70006011501260137014A015D01DA
:10012000720188019F01B801D201EE010B022A027F
:100130004B026E029302BA02E40210033F03700303
:10014000A403DC03160455049704DD042705750594
:10015000C80520067D06E0064907B8072D08A9084E
:100160002D09B9094D0AEA0A900B400CFA0CC00D92
:10017000910E6F0F5A1053115B1272139A14D4150B
:1001800020178018F519801B231DDE1EDC05F505E0
:100190000E0627064006590672068B06030201006A
:1001A0001300010023020000030504000303040000
:1001B00003050300000000002300260029000000C2
:1001C0000008000201000003040700000000000016
:1001D000000000000000240027002A0000000000AA
:1001E000250028002B000404040404040404020273
:1001F00002020202030303030303010204081020A6
:100200004080010204081020010204081020090B9C
:10021000F70E11241FBECFEFD8E0DEBFCDBF11E037
:10022000A0E0B1E0E8E1F5E202C005900D92A0384F
:10023000B107D9F722E0A0E8B1E001C01D92A336D2
:10024000B207E1F711E0C8E0D1E004C02197FE0158
:100250000E942611C730D107C9F70E946C0C0C947C
:1002600077120C9400008093B90181E08093BA0169
:100270000895FC0140813181228190E080E0E0918D
:100280002202F0912302E80FF91F4083E09122023D
:10029000F0912302E80FF91F3183E0912202F091DF
:1002A0002302E80FF91F228303968231910539F763
:1002B000089520910002382FA0910102B09102020E
:1002C000FC018E2F831B821740F491918C918078D2
:1002D0009F77892B8C931296F4CF80E00895860F38
:1002E000971FFC0180810895833081F028F48130CC
:1002F00099F08230A9F008958730A9F08830C9F0CC
:100300008430B1F4809180008F7D03C080918000A3
:100310008F7780938000089584B58F7784BD08958A
:1003200084B58F7DFBCF8091B0008F778093B00034
:1003300008958091B0008F7DF9CFCF93DF93282F60
:1003400030E0F901E254FE4F8491F901E650FE4F8E
:10035000D491F901EA51FE4FC491CC23A1F081114F
:100360000E947401EC2FF0E0EE0FFF1FEC54FE4FE3
:10037000A591B491EC91ED2381E090E009F480E047
:10038000DF91CF91089580E090E0FACF1F93CF9353
:10039000DF93162F282F30E0F901E254FE4F8491AD
:1003A000F901E650FE4FD491F901EA51FE4FC49194
:1003B000CC23A1F081110E947401EC2FF0E0EE0F2C
:1003C000FF1FE452FE4FA591B4918FB7F894EC91C2
:1003D000111108C0D095DE23DC938FBFDF91CF9140
:1003E0001F910895DE2BF8CF1F93CF93DF93CDE5B8
:1003F000D2E011E0198360E087E00E94C60161E06D
:1004000086E00E94C601188360E085E0DF91CF910D
:100410001F910C94C601CF93DF9390E0FC01E6504E
:10042000FE4F24918A519E4FFC0184918823D1F084
:1004300090E0880F991FFC01EE52FE4FA591B491F8
:10044000FC01E452FE4FC591D49161110EC09FB7DB
:10045000F8948C91E22FE0958E238C932881E223EF
:10046000E8839FBFDF91CF9108958FB7F894EC9107
:10047000E22BEC938FBFF6CF806480937C00809159
:100480007A00806480937A0080917A0086FDFCCFA8
:10049000809178009091790008953FB7F894809109
:1004A0009D0190919E01A0919F01B091A00126B560
:1004B000A89B05C02F3F19F00196A11DB11D3FBF9C
:1004C000BA2FA92F982F8827BC01CD01620F711D6B
:1004D000811D911D42E0660F771F881F991F4A9565
:1004E000D1F708958F929F92AF92BF92CF92DF92F1
:1004F000EF92FF924B015C010E944D026B017C0167
:100500000E944D026C197D098E099F09683E734057
:1005100081059105A8F321E0821A9108A108B1088C
:1005200088EEC80E83E0D81EE11CF11C81149104F2
:10053000A104B10429F7FF90EF90DF90CF90BF9016
:10054000AF909F908F9008950895FB01DC0140FFCC
:1005500005C002C001900D9201900D924250D0F75B
:100560005040C0F70895FC019091BC009F70906DC1
:100570009093BC0094E68091BC0084FF0CC0915025
:10058000D1F79091BC009B7F9093BC009091BC00F0
:1005900094609093BC0010820895FC018389B0E0C0
:1005A000A0E0882341F08189A489B5899BE0899FD7
:1005B000A00DB11D11248C91811125C081E0808393
:1005C00090E012962D913C911397378726871196CC
:1005D0008C911197880F892B858314968D919D910D
:1005E0000D90BC91A02D82879387A487B587168232
:1005F00017821086118611828091BC008F70806AEC
:100600008093BC00089582E0808391E0DACF0F935D
:100610001F93CF93DF930091F2011091F301D80162
:1006200011968C910E949D01EC01F80180810E943D
:100630009D01D8011696EC91EF70B4E0EB9FF001AC
:100640001124CC0FDD1FC82BEC0FF11DE456FE4F1B
:10065000E491D8011696EC931697E073C9F01496BE
:100660008C91813021F4E03229F080E003C081E0F8
:10067000E032D9F3F801878381E085830084F18536
:10068000E02D309729F0DF91CF911F910F910994C0
:10069000DF91CF911F910F910895FC01108285E6A3
:1006A0008583A181B2819C918381809589238C93DC
:1006B0008091A10181508093A10108950F931F9310
:1006C000CF93DF93EC0168897989EE85FF858E8170
:1006D0009F8109958D3508F03BC0E82FF0E0EE0FC3
:1006E000FF1FEE51FF4F05911491688979898E8122
:1006F0009F81EE85FF85019609952E813F818F357B
:1007000020F18D832E5F3F4F3F832E83ED81EF5588
:10071000FF0BEE0FFF1FE853FF4F259134914C81E3
:10072000429FC001439F900D11249987888780E0E4
:100730009AEFB8010E94D1107B876A877D876C870A
:10074000DF91CF911F910F9108952F5F3F4FDCCF25
:100750008E3579F4688979898E819F81EE85FF8550
:10076000019609958C838E819F8102969F838E834B
:10077000AACFCE01DF91CF911F910F910C944D0321
:10078000BF92CF92DF92EF92FF920F931F93CF937E
:10079000DF93CDB7DEB728970FB6F894DEBF0FBE54
:1007A000CDBF2FE631E03A8329838BE091E09C8333
:1007B0008B833E832D8398878F838FE6E82EF12CE1
:1007C000D7018C918D7F8C9387E292E00E944D033C
:1007D00089E392E00E944D038BE492E00E944D0376
:1007E0001092A10110928000E1E8F0E010821092D6
:1007F0008500109284008081886080838091A101AF
:100800008E5F8093A1018AEF90E09093890080939E
:10081000880080818160808307E212E089819A816B
:10082000F801978786878B819C81918B808BC8018B
:100830000E944D03BB24B394D801BC9250966D9195
:100840007C9151971E96ED91FC9190E080E0099586
:10085000F8018483CC24C394D12CD782C682C801EA
:100860000E945E038D819E81D80191969C938E9308
:1008700090978F81988593969C938E93929789E316
:1008800092E00E944D03F801B28A62A173A100A018
:10089000F1A1E02D90E080E00995D80156968C9367
:1008A00056975996DC92CE92589789E392E00E942F
:1008B0005E03F70180818260808328960FB6F894EA
:1008C000DEBF0FBECDBFDF91CF911F910F91FF9083
:1008D000EF90DF90CF90BF9008958F929F92AF924C
:1008E000BF92CF92DF92EF92FF92E5E8F1E0C12C48
:1008F000D12C76018281938181939193C80ED91E68
:10090000E11CF11C21E0E739F207A1F783E00E9426
:100910003C029093980180939701A7019601280FBC
:10092000391F411D511DCA01B9012AE0822E912CA7
:10093000A12CB12CA50194010E94E510A2E3B0E026
:100940000E942C116B017C01A50194010E94E5100D
:1009500049015A018091810190918201A091830106
:10096000B0918401281B390B4A0B5B0BDA01C901DA
:10097000B7FF07C0B095A095909581959F4FAF4F59
:10098000BF4F0497A105B105CCF0C701B60138EE01
:10099000C31633E0D306E104F104D8F42AEF30E0C3
:1009A00040E050E00E94E510209380018092810198
:1009B00090928201A0928301B09284018091800183
:1009C000FF90EF90DF90CF90BF90AF909F908F906F
:1009D000089528EE33E040E050E00E94E5102E5FDD
:1009E000293010F328E0E0CF9F92AF92BF92CF92D0
:1009F000DF92EF92FF920F931F93CF93DF93EC015F
:100A00007B016A018B892889821798F080EA96E831
:100A1000A1E0B0E03B89321760F00197A109B1096C
:100A2000C9F7CE010E94B302CE010E94CD0281E03F
:100A30007DC0D7018C9181114CC000E0C114D1045C
:100A400011F0F6010481F70184819581A681B781B7
:100A5000800F911DA11DB11D8597A105B10508F05D
:100A600071C09FB6F89410E084819581800F911F2A
:100A70000E9446115C019FBE84E0A114B10409F4F8
:100A800055C0F7014481558162817381C501800F92
:100A9000911F0E94A5020C0D1D1D95010C151D0531
:100AA00099F0D8018E918D01F90181939F01F70191
:100AB00084819581A681B7810196A11DB11D848392
:100AC0009583A683B783EACFD7011396BC92AE92E3
:100AD00012971FB7F8940B898C899D890097F9F0BC
:100AE0003B8928893217D8F42A894BE050E0B701B6
:100AF000BBE02B9F800D911D11240E94A5028B89C4
:100B00008F5F8B8B8A89282F30E02F5F3F4F98892A
:100B10008F5F9217130609F00CF480E08A8B0111A5
:100B200003C0CE010E94CD021FBF8981DF91CF910A
:100B30001F910F91FF90EF90DF90CF90BF90AF90FB
:100B40009F90089583E0F2CF2F923F924F925F9251
:100B50006F927F928F929F92AF92BF92CF92DF92CD
:100B6000EF92FF920F931F93CF93DF93CDB7DEB732
:100B70006E970FB6F894DEBF0FBECDBF4C01762E38
:100B80001A01098B1A8B2B8B3C8BDC0115968C91EF
:100B900081117EC1FA018181882309F477C114E2B1
:100BA000181B0FB607FC18C0F1E06F138FC0812F20
:100BB00090E0B0E0A0E08A159B05AC05BD0508F407
:100BC00067C191E0D4015B962C915B9758968C910C
:100BD000821B891708F45CC181E0F4018583D1018F
:100BE00012969C918481891719F18091B9008E7FAA
:100BF0008093B9008091B9008D7F8093B90020E97E
:100C000031E0911102C024E630E050E040E060E8BD
:100C10007EE380E090E00E94071120513109359574
:100C200027952093B800F1018281D40114968C930A
:100C30007110AFC08401085F1F4FF4018081918162
:100C4000A281B38129893A894B895C8928173907A0
:100C50004A075B0709F44BC0D1018C9119828A8342
:100C60001C821B821D821E821F82188619861B868B
:100C70001A8611968C912C873D874E875F87888BCB
:100C8000AE01445F5F4FBE016F5F7F4FC8010E949E
:100C9000F404882361F1F40115826E960FB6F8947E
:100CA000DEBF0FBECDBFDF91CF911F910F91FF909F
:100CB000EF90DF90CF90BF90AF909F908F907F90FC
:100CC0006F905F904F903F902F900895F401808136
:100CD0009181A281B38129893A894B895C8928173E
:100CE00039074A075B0709F46CCF92E06BCF10928B
:100CF000BA01D1018C9191E099838A83FC82EB82C5
:100D0000AD82BE82CF82D886198683E391E09B872D
:100D10008A8750E040E0BE016F5F7F4FC8010E94AC
:100D2000F4048111B8CF2FB7F8948091B501909158
:100D3000B601A091B701B091B8012FBFF40126818F
:100D40003781820F931FA11DB11D2091BA0121117E
:100D500017C0F40126813781232BB9F32FB7F894FC
:100D60004091B5015091B6016091B7017091B80101
:100D70002FBF84179507A607B70738F782E005C08D
:100D80008091B901882309F47CC0D40115961C9286
:100D900084CF412C512C3201212F30E050E040E033
:100DA000298F3A8F4B8F5C8FA401485F5F4F5E8F16
:100DB0004D8F8E01045F1F4F4A145B046C047D0449
:100DC00008F05FC0D10111968C9149895A896B89CD
:100DD0007C89440D551D661D771D4C875D876E8788
:100DE0007F87888BA6019501241935094609570983
:100DF0002D8B3E8B4F8B588F898D9A8DAB8DBC8DF3
:100E000082179307A407B50720F48D8B9E8BAF8BB9
:100E1000B88FD1018C9119828A83C701840D951DE9
:100E20009C838B832D893E894F89588D2D833E83EA
:100E30004F83588719861B861A86F4018081918119
:100E4000A281B38129893A894B895C89281739079E
:100E50004A075B07A1F440E050E0BE016F5F7F4F9F
:100E60008D8D9E8D0E94F40481118FCF2D893E8936
:100E70004F89588D420E531E641E751E9DCFA801CA
:100E8000ECCFD40115961C9280E007CF84E005CF0B
:100E900081E003CFAF92BF92CF92DF92EF92FF92A9
:100EA0000F931F93A42EB12CD12CC12C082F10E02E
:100EB00030E020E07B0149E052E061E08091F00108
:100EC0009091F1010E94A4051F910F91FF90EF9066
:100ED000DF90CF90BF90AF900895EDE0F2E082E117
:100EE000DF011D928A95E9F7EFE1F2E083E0DF018F
:100EF0001D928A95E9F710920C0208951F93CF93E3
:100F0000DF93CDB7DEB763970FB6F894DEBF0FBEA1
:100F1000CDBF60912202709123028FEF61157105A0
:100F200009F437C042E150E0CE0101960E94A502CB
:100F3000DE01119630E013E0832F612F0E94C5106F
:100F4000E92FF0E0E75FFD4F638DFD0120811196F1
:100F5000269F020E20E0211D20833F5F323161F782
:100F6000112482E1FE013196ADE0B2E001900D92D4
:100F70008A95E1F742E16DE072E081E00E944A0764
:100F800085E58B8B41E0BE016D5E7F4F86E10E945F
:100F90004A0763960FB6F894DEBF0FBECDBFDF9150
:100FA000CF911F910895CF93DF9300D00F92CDB7CB
:100FB000DEB78FEF89831A821B82CE0101960E94D1
:100FC00039010E947E070E94F401FFCF8F929F9209
:100FD000AF92BF92CF92DF92EF92FF920F931F9347
:100FE000CF93DF93CDB7DEB7CDB6DEB6009100026A
:100FF00010E02DB73EB7201B310B0FB6F8943EBF63
:101000000FBE2DBFEDB7FEB731967F010E0F1F1F2C
:101010002AE0822E912CA12CB12CE016F10659F079
:10102000A50194010E94E510605DF80162938F01B3
:10103000B901CA01F2CFC7010E9459010FB6F89455
:10104000DEBE0FBECDBEDF91CF911F910F91FF90FD
:10105000EF90DF90CF90BF90AF909F908F900895CA
:101060000F931F93CF93DF93EC018B8910E000E087
:10107000882341F089890C891D899BE0899F000D97
:10108000111D1124D8018C91811107C012968D91E8
:101090009C91009711F00E94DF11D8011996ED91F3
:1010A000FC91309711F089810995F8012085222360
:1010B00069F0898181110AC030E050E040E00FB64C
:1010C00007FE21C0CA01B9010E9472028B898823E0
:1010D00081F08B8981508B8B8989282F30E02F5F9D
:1010E0003F4F98898F5F9217130609F00CF480E048
:1010F000898B8B89882391F0CE01DF91CF911F914D
:101100000F910C94CD02A0EABFE00E942C11615017
:10111000710981099109D1F20000F9CFDF91CF91D6
:101120001F910F9108951F921FB61F9211242F93A4
:101130003F938F939F93AF93BF938091B50190910D
:10114000B601A091B701B091B80130919C0123E0A4
:10115000230F2D3750F50196A11DB11D20939C0141
:101160008093B5019093B601A093B701B093B801F5
:1011700080919D0190919E01A0919F01B091A0014D
:101180000196A11DB11D80939D0190939E01A09396
:101190009F01B093A001BF91AF919F918F913F911B
:1011A0002F911F901FBE1F90189526E8230F0296BF
:1011B000A11DB11DD3CF1F920F920FB60F92112414
:1011C0002F933F934F935F936F937F938F939F934F
:1011D000AF93BF93EF93FF93E0910301F09104016C
:1011E0000995FF91EF91BF91AF919F918F917F9161
:1011F0006F915F914F913F912F910F900FBE0F9084
:101200001F9018951F920F920FB60F9211242F93D3
:101210003F934F935F936F937F938F939F93AF937E
:10122000BF93EF93FF93E0910101F09102010995C3
:10123000FF91EF91BF91AF919F918F917F916F91AE
:101240005F914F913F912F910F900FBE0F901F9084
:1012500018951F920F920FB60F9211242F933F9360
:101260004F935F936F937F938F939F93AF93BF93AE
:10127000CF93DF93EF93FF93C091C801D091C90141
:101280008091B900887F883209F44BC040F58031E5
:10129000F1F1C0F4882309F4AEC08830C1F1FF91A8
:1012A000EF91DF91CF91BF91AF919F918F917F91FE
:1012B0006F915F914F913F912F910F900FBE0F90C3
:1012C0001F901895883169F1803249F78091B900F3
:1012D000887F803309F446C086E089835AC0803411
:1012E00009F473C060F4803389F38833C1F68091C8
:1012F000BC008F7080688093BC001882D0CF80358E
:1013000009F44EC0883581F1883449F6DFCF8D81EC
:101310008093BB008091BC008F70806C8093BC0078
:10132000BECF4E815F81688579858A859B85AC8536
:10133000BD85481759076A077B0758F5EE85FF8575
:101340008E819F81A885B985AC01BD014F5F5F4F3C
:101350006F4F7F4F4E835F8368877987E80FF91F50
:101360008081D6CF87E0B9CF2091BB00EE85FF8585
:101370008E819F81A885B985AC01BD014F5F5F4F0C
:101380006F4F7F4F4E835F8368877987E80FF91F20
:101390002083CE010E94B302CE010E9430087FCF8D
:1013A0002091BB00EE85FF858E819F81A885B98540
:1013B000AC01BD014F5F5F4F6F4F7F4F4E835F8327
:1013C00068877987E80FF91F20834E815F816885E0
:1013D00079858A859B85AC85BD850197A109B10971
:1013E000481759076A077B0708F494CF8091BC001F
:1013F0008F70806893CF88E070CF1F920F920FB6E6
:101400000F9211240F931F932F933F934F935F934A
:101410006F937F938F939F93AF93BF93CF93DF93FC
:10142000EF93FF93C091F401D091F5018E010A5C16
:101430001F4FFE018081882389F08485958501975F
:1014400095878487892B51F4828593859587848736
:10145000A181B2818C91938189278C937296E01738
:10146000F10741F780919B018034C0F48F5F809336
:101470009B01FF91EF91DF91CF91BF91AF919F9130
:101480008F917F916F915F914F913F912F911F911C
:101490000F910F900FBE0F901F90189510929B0107
:1014A0008881882351F08885998501979987888755
:1014B000892B19F4CE010E945E036296C017D107F2
:1014C00079F78091A1018823A1F280916F008D7F2F
:1014D00080936F00CECF0F920FB60F921F92112400
:1014E0002F933F934F938F939F93EF93FF9380910D
:1014F0005E02882309F477C05F9A80919A018F5F1A
:1015000080939A01863050F0809199018F5F8C30E2
:1015100008F075C08093990110929A0180919A0108
:1015200090910002E0E0891758F4282F30E0220F54
:10153000331FE0910102F0910202E20FF31FE181FB
:10154000F0E0EE0FFF1FE15FFE4F40919901208117
:10155000318102C0369527954A95E2F7E0E020FFF9
:101560001CC0891708F04EC090E0880F991F209189
:10157000010230910202820F931FFC018081E82F4B
:10158000EF77881F8827881FE052FF0BE859FF4F2D
:101590009491E82FEE0FEE0FE92B299885E02A9819
:1015A000EE2399F190919A0198132FC0289A000088
:1015B0002A9A0000815098F787E090E0F0E02A989E
:1015C0009F01082E02C0359527950A94E2F720FF67
:1015D0001EC0289A00002A9A0000019780F7000098
:1015E0000000299A5F98FF91EF919F918F914F9101
:1015F0003F912F911F900F900FBE0F901895109252
:1016000099018ACFE0E080E0BFCF2898D0CF28981A
:10161000E1CF0F931F93CF93DF9300D00F92CDB7FD
:10162000DEB78FEF8093BB011092BD011092BC0119
:101630001092C7011092C6018FEF9FEFDC018093DB
:10164000C2019093C301A093C401B093C50120913E
:10165000E80121116AC08093CA019093CB01A09345
:10166000CC01B093CD0121E02093CE011092CF01A7
:1016700084E690E09093D1018093D0011092D20142
:101680001092D3012093D4019093D6018093D50179
:101690008CE290E00E944611FC019C01245D3F4FCA
:1016A00014821582168217821086128611863B9646
:1016B000E217F307A9F79093E7018093E60184E02E
:1016C0008093E2011092E5011092E3011092E4018F
:1016D00061E082E10E94C60161E083E10E94C601EF
:1016E0008091B9008E7F8093B9008091B9008D7F81
:1016F0008093B9008CE08093B8008091BC00846036
:101700008093BC008091BC0081608093BC0080917C
:10171000BC0080648093BC0082ED91E09093C9018D
:101720008093C80181E08093E8018AEC91E0909376
:10173000F1018093F00110925D0210925E0210920E
:1017400027021092390210924B028EE089838FE0BB
:101750008A831B829E012F5F3F4FA7E2B2E0AE015A
:101760004C5F5F4FF90181919F01882331F190E037
:10177000FC01E650FE4F649113966C9313978A51C7
:101780009E4FFC017491E72FF0E0EE0FFF1FE45233
:10179000FE4F0591149112961C930E931197FC0124
:1017A0008491E82FF0E0EE0FFF1FEE52FE4F85917F
:1017B0009491FC017081672B608352964217530706
:1017C00009F0D0CF87E292E09093F5018093F40185
:1017D0001092090210920A0281E080930B020E948B
:1017E0006D0710922302109222028FEF8093240241
:1017F00080E68093250280932602109200021092C8
:101800000402109203021092060210920502109236
:101810000802109207028CE090E00E944611FC0141
:101820009C01245F3F4F108211823296E217F3072A
:10183000D1F79093020280930102892B19F086E080
:101840008093000283E08093F60182E08093F701A9
:1018500084E08093F8011092F9011092FA0110923D
:10186000FB011092FC011092FD011092FF011092F9
:10187000FE0160E00E940B0260E08091F6010E9490
:101880000B0260E08091F7010E940B0227E033E039
:101890003093020120930101809169008C7F816067
:1018A00080936900E89A30930401209303018091AA
:1018B0006900837F846080936900E99A86EF91E0F4
:1018C0009093F3018093F2010F900F900F90DF91AE
:1018D000CF911F910F910895CDB7DEB760970FB6E6
:1018E000F894DEBF0FBECDBF789484B5826084BD0E
:1018F00084B5816084BD85B5826085BD85B5816014
:1019000085BD80916E00816080936E001092810091
:10191000809181008260809381008091810081604C
:10192000809381008091800081608093800080910D
:10193000B10084608093B1008091B0008160809399
:10194000B00080917A00846080937A0080917A0060
:10195000826080937A0080917A00816080937A001F
:1019600080917A00806880937A001092C10061E0D3
:101970008AE00E940B0261E088E00E940B0261E0B5
:1019800089E00E940B0261E087E00E940B0261E0A7
:1019900085E00E940B0261E086E00E940B0260E09D
:1019A00081E10E940B0261E08EE00E940B0261E087
:1019B0008FE00E940B021092B0001092B1001092C2
:1019C000B2008FEF8093B3008091B000826080936B
:1019D000B0008091B10085608093B100809170006B
:1019E0008260809370006090F0017090F10111E0CE
:1019F00084E58093090210930A0210930B020E945F
:101A00006D0785E5898341E0BE016F5F7F4F87E108
:101A10000E944A0710930C02198341E0BE016F5FD8
:101A20007F4F80E00E944A0743E050E06FE370E0A0
:101A30008FE192E00E94701243E06FE172E083E177
:101A40000E944A0783EA91E0909323028093220246
:101A500020910002E0910102F091020280E098E002
:101A6000281721F091838F5F3296FACF0E94F401FC
:101A70001FE00E946D046AE070E080E090E00E9448
:101A800072021150B1F70E946D046CE6C62ED12C83
:101A9000E12CF12C81115EC08BE291E00E94590192
:101AA0008FEF89838A831B82CE0101960E943901C0
:101AB0000E947E076CED75E080E090E00E9472026B
:101AC0001AE086E00E943C021150D9F714E6C12CBE
:101AD000D12C760186E00E943C02092E000CAA0B54
:101AE000BB0BC80ED91EEA1EFB1E115099F7C70189
:101AF000B6010E94A60F20E030E048EC52E40E94BC
:101B0000050F2CE135E348E15EE30E9458106B01BC
:101B10007C0120E030E04CE552E40E94000F87FF9A
:101B20002AC020E030E048EC52E4C701B6010E9430
:101B300058100E94770F0E94E607809100028430BF
:101B400038F0E0910102F09102028681806886837C
:101B50000E94D307C701B6010E94E60760E170E06A
:101B600080E090E00E94720281E0C81AD108E1088A
:101B7000F10881F7A5CF87E5898781E08A878B8780
:101B800091E599838A838B834E0199E0890E911C9C
:101B9000A12CB12C6501A394CE0140967C0100E0FC
:101BA00011E020E030E0A40160E0C3010E94A40540
:101BB000811112C003E010E020E030E0AE014F5F81
:101BC0005F4F60E0C3010E94A405882341F082E3D7
:101BD00091E00E945901BCCF89E391E0FACF8FEFE9
:101BE00089838A838B83CE0101960E9439010E94EA
:101BF0007E0780EC93E09093FF018093FE0185E0E7
:101C0000282E582C492C332433940FE611E097E208
:101C1000692E91E0792E21E2C22E21E0D22E3AEFF8
:101C2000A32EB12CEE24E394F12C8091000181507D
:101C30008093000181111CC0E091A20181E08E0F10
:101C40008093A201E83008F0CEC0F0E0EC57FD4EE2
:101C500087E00C942611E0E4F1E0A52DB42D01906D
:101C60000D928A95E1F7C4010E945901209200016A
:101C70008091F8010E949D01982F2091F901213057
:101C800019F491E0811190E0911189C01A830983C0
:101C90007C826B821E830D83D886CF8280916F00F9
:101CA0008D7F80936F0087E292E00E944D0389E36D
:101CB00092E00E944D038BE492E00E944D0310924B
:101CC000A101109280001092810010928500109264
:101CD0008400809181008860809381008091A101BF
:101CE0008E5F8093A101B0928900A09288008091BC
:101CF000810081608093810089819A81909336026E
:101D0000809335028B819C819093380280933702B7
:101D100087E292E00E944D033092270260913702E1
:101D200070913802E0913502F091360290E080E047
:101D3000099580932B02F0922E02E0922D0287E209
:101D400092E00E945E038D819E8190934802809371
:101D500047028F81988590934A028093490289E3D4
:101D600092E00E944D0330923902609149027091D5
:101D70004A02E0914702F091480290E080E0099524
:101D800080933D02F0924002E0923F0289E392E0AC
:101D90000E945E0380916F00826080936F0064E612
:101DA00070E080E090E00E9472023FCFE7E4F1E053
:101DB00054CFEEE4F1E051CFE5E5F1E04ECFECE5B4
:101DC000F1E04BCFE3E6F1E048CFEAE6F1E045CFC2
:101DD000E1E7F1E0A52DB42D01900D928A95E1F790
:101DE0001092A20140CF87E0E8E7F1E0F3CF8091C5
:101DF000010290910202009711F00C94DF110895F6
:101E00000E94E30F08F481E008950E94190F0C94DA
:101E10001E100E94171058F00E94101040F029F474
:101E20005F3F29F00C94071051110C9452100C9440
:101E30000D100E942F1068F39923B1F3552391F3ED
:101E4000951B550BBB27AA2762177307840738F029
:101E50009F5F5F4F220F331F441FAA1FA9F335D086
:101E60000E2E3AF0E0E832D091505040E695001C3A
:101E7000CAF72BD0FE2F29D0660F771F881FBB1FF4
:101E8000261737074807AB07B0E809F0BB0B802DD2
:101E9000BF01FF2793585F4F3AF09E3F510578F0FE
:101EA0000C9407100C9452105F3FE4F3983ED4F367
:101EB000869577956795B795F7959F5FC9F7880FD2
:101EC000911D9695879597F90895E1E0660F771F24
:101ED000881FBB1F621773078407BA0720F0621BB5
:101EE000730B840BBA0BEE1F88F7E09508950E94E0
:101EF000371088F09F5798F0B92F9927B751B0F055
:101F0000E1F0660F771F881F991F1AF0BA95C9F77D
:101F100014C0B13091F00E945110B1E008950C94BA
:101F20005110672F782F8827B85F39F0B93FCCF36D
:101F3000869577956795B395D9F73EF490958095FA
:101F4000709561957F4F8F4F9F4F0895E89409C01A
:101F500097FB3EF490958095709561957F4F8F4FDC
:101F60009F4F9923A9F0F92F96E9BB279395F695F2
:101F7000879577956795B795F111F8CFFAF4BB0F70
:101F800011F460FF1BC06F5F7F4F8F4F9F4F16C0D4
:101F9000882311F096E911C0772321F09EE8872F5E
:101FA000762F05C0662371F096E8862F70E060E01A
:101FB0002AF09A95660F771F881FDAF7880F969593
:101FC000879597F90895990F0008550FAA0BE0E837
:101FD000FEEF16161706E807F907C0F012161306EB
:101FE000E407F50798F0621B730B840B950B39F42B
:101FF0000A2661F0232B242B252B21F408950A2691
:1020000009F4A140A6958FEF811D811D089597F9D0
:102010009F6780E870E060E008959FEF80EC08958E
:1020200000240A94161617061806090608950024B7
:102030000A9412161306140605060895092E039431
:10204000000C11F4882352F0BB0F40F4BF2B11F4A5
:1020500060FF04C06F5F7F4F8F4F9F4F089557FD04
:102060009058440F551F59F05F3F71F04795880F06
:1020700097FB991F61F09F3F79F08795089512169D
:1020800013061406551FF2CF4695F1DF08C0161649
:1020900017061806991FF1CF8695710561050894FA
:1020A0000895E894BB2766277727CB0197F9089511
:1020B0000E946B100C941E100E94101038F00E94A9
:1020C000171020F0952311F00C9407100C940D10AC
:1020D00011240C9452100E942F1070F3959FC1F39D
:1020E000950F50E0551F629FF001729FBB27F00DC6
:1020F000B11D639FAA27F00DB11DAA1F649F66271B
:10210000B00DA11D661F829F2227B00DA11D621F69
:10211000739FB00DA11D621F839FA00D611D221F23
:10212000749F3327A00D611D231F849F600D211D07
:10213000822F762F6A2F11249F5750409AF0F1F08A
:1021400088234AF0EE0FFF1FBB1F661F771F881FF3
:1021500091505040A9F79E3F510580F00C94071014
:102160000C9452105F3FE4F3983ED4F38695779534
:102170006795B795F795E7959F5FC1F7FE2B880F99
:10218000911D9695879597F90895991B79E004C05C
:10219000991F961708F0961B881F7A95C9F78095A6
:1021A0000895AA1BBB1B51E107C0AA1FBB1FA6179E
:1021B000B70710F0A61BB70B881F991F5A95A9F7F0
:1021C00080959095BC01CD010895A1E21A2EAA1B1D
:1021D000BB1BFD010DC0AA1FBB1FEE1FFF1FA217D7
:1021E000B307E407F50720F0A21BB30BE40BF50BD4
:1021F000661F771F881F991F1A9469F7609570955D
:10220000809590959B01AC01BD01CF010895052EED
:1022100097FB1EF400940E941E1157FD07D00E94E8
:10222000E51007FC03D04EF40C941E115095409518
:10223000309521953F4F4F4F5F4F08959095809572
:10224000709561957F4F8F4F9F4F0895EE0FFF1F41
:102250000590F491E02D09940E943711A59F900DEF
:10226000B49F900DA49F800D911D11240895A29FED
:10227000B001B39FC001A39F700D811D1124911D5A
:10228000B29F700D811D1124911D08950F931F930E
:10229000CF93DF938230910510F482E090E0E091DB
:1022A0006102F091620230E020E0B0E0A0E03097FF
:1022B00099F42115310509F447C0281B390B243046
:1022C0003105C0F58A819B816115710571F1FB01B2
:1022D00093838283FE0111C0408151810281138169
:1022E00048175907F8F04817590799F4109761F003
:1022F00012960C93129713961C933296CF01DF918E
:10230000CF911F910F910895009361021093620283
:10231000F4CF2115310519F04217530718F49A012B
:10232000BD01EF01DF01F801C2CF909362028093FB
:102330006102D0CFFE01E20FF31F819391932250EF
:10234000310939832883DACF20915F02309160020E
:10235000232B41F420910701309108013093600252
:1023600020935F022091050130910601211531056E
:1023700041F42DB73EB74091090150910A01241B49
:10238000350BE0915F02F0916002E217F307A0F4D1
:102390002E1B3F0B2817390778F0AC014E5F5F4FBB
:1023A0002417350748F04E0F5F1F5093600240938B
:1023B0005F0281939193A2CFF0E0E0E09FCFCF93B3
:1023C000DF930097E9F0FC01329713821282C091EB
:1023D0006102D0916202DE0130E020E02097A1F49A
:1023E00020813181820F931F20915F023091600222
:1023F0002817390709F067C0F0936002E0935F0285
:10240000DF91CF910895DA01AE17BF0708F040C001
:1024100012964D915C9113979D014115510599F7C5
:10242000D9011396FC93EE9312974D915D91A40FF1
:10243000B51FEA17FB0779F4808191810296840F1A
:10244000951FD90111969C938E9382819381139647
:102450009C938E931297B0E0A0E08A819B810097B5
:10246000B9F5FE0181919191E80FF91F80915F020A
:10247000909160028E179F0719F6109761F51092E0
:10248000620210926102D0936002C0935F02B8CFE3
:10249000B383A28340815181840F951FA817B90788
:1024A00071F44E5F5F4F8D919C911197480F591FAA
:1024B0005183408312968D919C9193838283211541
:1024C000310509F0ADCFF0936202E093610298CF3D
:1024D000DE01EC01C2CF13961C921E921297D3CF4D
:1024E000DC0101C06D9341505040E0F7089511E0C8
:1024F000C8E0D1E004C0FE010E9426112196C93037
:10250000D107C9F7F894FFCF2B0ED60ED90EDC0EEB
:08251000DF0EE20EE50EE80EFD
:1025180001A402A40200006302200001496B5DFFD0
:102528000F01004100110149025505AD057707FF6C
:102538000F02276800685D02206A5D50686F746F3B
:10254800640020525443202000454550524F4D000E
:102558007E7E7E7E7E7E00606060606060007B7B49
:102568007B7B7B7B005F5F5F5F5F5F007D7D7D7D49
:102578007D7D00272727272727002D2D2D2D2D2D61
:10258800002E2E2E2E2E2E0020202020202000006F
:00000001FF
